:1000000000000120290700005107000053070000ED
:1000100055070000570700005907000000000000C6
:100020000000000000000000000000005B0700006E
:100030005D070000000000005F070000610700008E
:1000400063070000630700000D0D00006307000058
:1000500063070000630700006307000063070000F8
:1000600063070000630700006307000063070000E8
:1000700063070000630700006307000063070000D8
:100080006307000095090000630700006307000094
:1000900063070000630700006307000063070000B8
:1000A00063070000630700006307000063070000A8
:1000B000630700006307000000000000000000006C
:1000C0006307000063070000630700006307000088
:1000D00063070000630700006307000000000000E2
:1000E0000000000000000000000000000000000010
:1000F0000000000000000000000000000000000000
:1001000000000000000000000000000000000000EF
:1001100000000000000000000000000000000000DF
:10040000044B05481B1A062B02D9044B03B11847AD
:10041000704700BF7700002074000020000000003B
:1004200005490648091A891001EBD171491002D01B
:10043000034B03B11847704774000020740000207C
:100440000000000010B5064C237843B9FFF7D8FF31
:10045000044B13B10448AFF300800123237010BD97
:1004600074000020000000003012000008B5084BA6
:100470001BB108490848AFF300800848036813B966
:10048000BDE80840CCE7064B002BF9D09847F7E7CA
:1004900000000000780000203012000070000020F2
:1004A00000000000154B002B08BF134B9D46A3F521
:1004B000803A00218B460F461348144A121A00F066
:1004C0001DFD0F4B002B00D098470E4B002B00D08A
:1004D00098470020002104000D000D48002802D09C
:1004E0000C48AFF3008000F0E3FC2000290000F08E
:1004F00023FC00F0C9FC00BF000008000000012040
:10050000000000000000000074000020F80000203F
:10051000000000000000000038B54FF0804327497C
:10052000D3F800442648E5B200F0ACFAE90703D559
:100530002449234800F0A6FAAA0703D522492048F7
:1005400000F0A0FA6B0703D520491D4800F09AFA85
:10055000280703D51E491A4800F094FAC4F307444B
:1005600014F0010503D01B49154800F08BFAA107D0
:1005700003D51949124800F085FA620703D51749D7
:100580000F4800F07FFA230703D515490C4800F007
:1005900079FA6DB10121082000F034FA41F2883077
:1005A00000F0EAF900210820BDE8384000F02ABA3E
:1005B0004FF4FA50BDE8384000F0DEB9EA1100000F
:1005C00094000020380F0000570F0000750F000046
:1005D000950F0000B60F0000171000007D100000FE
:1005E000E91000004FF08043D3F80024C3F8002442
:1005F00070474FF080430122C3F800290022C3F85E
:100600001029C3F82029C3F83029C3F84029C3F8BA
:100610005029C3F860290222C3F8702970470000EE
:1006200010B501210E4C0D2000F0CAF901210D205A
:1006300000F0E8F920464FF4E13100F02FFA0949C3
:10064000204600F01FFAFFF767FFFFF7CBFF4FF0E0
:1006500080430122C3F87825BDE81040FFF7C9BFE9
:10066000940000202811000010B51446A0B90129FB
:1006700012D11046022100F0A3F9A20002F1A0421B
:10068000D2F8003723F44033C2F80037D2F80037ED
:1006900043F44033C2F800374FF080430124DC6755
:1006A000054800F00DFA054B5C60DC60DC61D3F8B6
:1006B0000025042AFBD010BD94000020002000403B
:1006C00010B50446FFF7D0FF24B94FF08043012254
:1006D000C3F8002510BD000008B50749074800F021
:1006E000D1F900210D2000F08DF90F220121002009
:1006F000BDE80840FFF7E4BF53110000940000205C
:1007000008B501210D2000F05BF900210D2000F05B
:1007100079F90121082000F053F900210820BDE8F3
:10072000084000F06FB900000649074A074B9B1AC2
:1007300003DD043BC858D050FBDC00F04DF8FFF758
:10074000B1FE00003C1200000000002074000020F8
:10075000FEE7FEE7FEE7FEE7FEE7FEE7FEE7FEE771
:10076000FEE7FEE70C4B1B78062B10D10B4B1B68EA
:100770001A070CD10A4B186800F0F003302B08D090
:1007800000F0E000A0F140035842584170470020BB
:1007900070470120704700BFE00F00F0E40F00F049
:1007A000E80F00F0094B1B78062B0CD1084B1B6897
:1007B0001A0708D1074B186800F0F000A0F13003C9
:1007C0005842584170470020704700BFE00F00F0CA
:1007D000E40F00F0E80F00F008B5FFF7E3FF10B1F9
:1007E0004B4B4C4A1A60FFF7BDFF28B14A4B4B4AAE
:1007F0001B68C3F342331360FFF7D4FF20B1484AAC
:10080000D36823F08073D360FFF7ACFF40B14FF0A3
:1008100080430022C3F80C21C3F81021C3F8382507
:10082000FFF7C0FF10B13F4B03221A60FFF7BAFF7A
:1008300040B13D4B05221A6001229A6700229A605E
:100840003F225A60394B1B78062B09D1384B1B6865
:100850001B0705D1374B1B6803F0F003502B0ED05C
:10086000354AD2F8883043F47003C2F88830BFF3B9
:100870004F8FBFF36F8F314B314A1A6008BD4FF075
:100880008052304BD2F80414C3F82015D2F8081463
:10089000C3F82415D2F80C14C3F82815D2F8101494
:1008A000C3F82C15D2F81414C3F83015D2F8181464
:1008B000C3F83415D2F81C14C3F84015D2F820142C
:1008C000C3F84415D2F82414C3F84815D2F82814F4
:1008D000C3F84C15D2F82C14C3F85015D2F83014C4
:1008E000C3F85415D2F83414C3F86015D2F838148C
:1008F000C3F86415D2F83C14C3F86815D2F8401454
:10090000C3F86C15D2F84424C3F87025A8E700BFDB
:1009100074C007400DF0ADBA440200103C05004021
:10092000F0ED00E0A005004010560040E00F00F0A0
:10093000E40F00F0E80F00F000ED00E00000002000
:100940000090D00300C00040094B1968094B30B536
:10095000D3F804050A060B0A02434FF47A71A2FB8E
:10096000014501FB0355E00B40EA454030BD00BFA7
:10097000900000200010014038B5044648B1FFF750
:10098000E3FF054600F01AF8FFF7DEFF401B844244
:10099000F8D838BD074B0022C3F8042182B0D3F841
:1009A0000431054A0193019B13680133DBB21360E4
:1009B00002B0704700100140900000207047000016
:1009C0001F281BD80E4B53F82030032916D8DFE818
:1009D00001F0020E060A03F5E07300210AE003F5B8
:1009E000E0730C2106E003F5E073042102E003F557
:1009F000E07303214FF0A04242F82310704700BF7C
:100A0000681100001F280CD8064B53F82000012362
:100A10004FF0A042834011B9C2F80C357047C2F8BC
:100A200008357047681100002DE9F04106460D4673
:100A300001EB02080C464445A4EB050707D03368D8
:100A400014F8011B1B68304698470028F3D138463C
:100A5000BDE8F08170B505460C46084649B100F086
:100A600055FA2B680246214628465B68BDE870406F
:100A7000184770BD08B50249FFF7ECFF08BD00BF7D
:100A8000E811000038B50546FFF7E4FF04462846A4
:100A9000FFF7F0FF204438BD0120704703681322A0
:100AA000DB69184770470369C3F81C15D3F81C218C
:100AB000002AFBD00022C3F81C210120704700004F
:100AC00090F85C305AB2520910B4012120320F4C18
:100AD00003F01F0301FA03F344F8223003695DF8C1
:100AE000044B0422C3F8082300225960D960C3F8DC
:100AF00000254FF0FF32C3F80C251430C3F814253D
:100B0000C3F80825C3F8102500F09EB900E100E005
:100B1000143000F0ABB9143000F0AEB9143000F06E
:100B200097B90000026990F85E3030B5C2F80C3514
:100B300090F85D30C2F8143590F86130012B01BF98
:100B400090F85F40C2F8104590F86040C2F8084540
:100B500018BF0023B1F5966FC2F86C352ED9B1F5E8
:100B6000166F2ED9B1F5965F2ED9B1F5165F2DD936
:100B7000B1F5615F2CD9B1F5964F2BD9B1F5E14FA5
:100B80002AD9B1F5164F29D9B1F5614F29D9B1F557
:100B9000963F29D9B1F5E13F28D9B1F5613F28D970
:100BA000344B994228D9B1F5E12F28D9B1F5612FFD
:100BB0008CBF4FF080534FF0706322E04FF49E23C0
:100BC0001FE04FF41D231CE02B4B1AE02B4B18E0C9
:100BD0002B4B16E02B4B14E02B4B12E04FF41D0374
:100BE0000FE04FF46B030CE0284B0AE04FF0EB737F
:100BF00007E04FF06C7304E04FF0806301E04FF0CA
:100C0000E863C2F8243500210423C2F80035C2F895
:100C10000811C2F81C11012111609160C2F804335F
:100C200090F85C2053B2D2B202F01F055C09A940D3
:100C30006034174D002B45F8241006DA154B02F0EE
:100C40000F02134460221A7606E003F1604303F5B5
:100C50006143602283F8002390F85C3001215AB28E
:100C600003F01F0301FA03F35209094941F8223046
:100C700030BD00BF90D0030000B01300005027002B
:100C800000F03A0000A04E0000C0750000903A014C
:100C900000E100E0FCEC00E02DE9F0411E464FF4DD
:100CA0007A73002583600E4B4560044640F8143B80
:100CB0001746884600F0B2F80A4AC4F8108052F885
:100CC000263084F85D309DF8183084F85C7052F856
:100CD000233084F85E3084F861502046BDE8F0810E
:100CE00000120000681100000369D3F8082110B554
:100CF00004464AB1D3F818151430C9B200F099F877
:100D000023690022C3F8082110BD00000148FFF745
:100D1000EBBF00BF9400002007B50B230093022215
:100D20000C2303490348FFF7B7FF03B05DF804FB4A
:100D3000002000409400002008B500F011F8FFF7F3
:100D4000DFFC0120FFF718FEFFF76AFC034CFFF7FA
:100D5000C3FC002CFBD0AFF30080F8E700000000DC
:100D60002A4BE02283F811234FF40032C3F880218C
:100D70001A604FF080430122C3F818259A6003F5EA
:100D800088330021C3F808150221C3F80413C3F8FF
:100D900044131A604FF01023D3F80022002A03DB1B
:100DA000D3F80432002B2FDA194B0122C3F80425A3
:100DB000D3F80024002AFBD04FF010221521C2F8EE
:100DC0000012D3F80024002AFBD04FF01023152284
:100DD0000F49C3F80422D1F800240D4B002AFAD0A1
:100DE0000022C3F80425D3F80024002AFBD0BFF367
:100DF0004F8F0849084BCA6802F4E0621343CB6086
:100E0000BFF34F8F00BFFDE7704700BF00E100E078
:100E100000E0014000ED00E00400FA0510B54022BA
:100E20000446002100F06AF800232364636420462E
:100E300010BD026C10B5531C446C03F03F039C4280
:100E40001CBF8154036410BD0023036443647047D6
:100E5000436C026C93421FBFC25C013303F03F033B
:100E6000436414BF10464FF0FF307047036C406C72
:100E7000181A48BF40307047436C026C934214BF4D
:100E8000C05C4FF0FF30704708B5074B044613B104
:100E90000021AFF30080054B1868836A03B19847BF
:100EA000204600F03BF800BF000000002C120000BC
:100EB00070B50E4B0E4CE41AA41000251E46A54238
:100EC00004D056F8253098470135F8E700F028F8A7
:100ED000084C094BE41AA41000251E46A54204D074
:100EE00056F8253098470135F8E770BD64000020BA
:100EF000640000206C0000206400002002440346CF
:100F0000934202D003F8011BFAE77047034613F837
:100F1000012B002AFBD1181A01387047FEE700BFE9
:100F2000F8B500BFF8BC08BC9E467047F8B500BFD6
:100F3000F8BC08BC9E4670475265736574206672A3
:100F40006F6D2070696E2D726573657420646574B1
:100F500065637465642E0052657365742066726FF4
:100F60006D207761746368646F672064657465637E
:100F70007465642E0052657365742066726F6D200F
:100F8000736F66742072657365742064657465633D
:100F90007465642E0052657365742066726F6D20EF
:100FA000435055206C6F636B2D75702064657465BC
:100FB000637465642E0052657365742064756520E2
:100FC000746F2077616B652075702066726F6D207D
:100FD00053797374656D204F4646206D6F646520AC
:100FE0007768656E2077616B657570206973207412
:100FF00072696767657265642066726F6D2044452B
:1010000054454354207369676E616C2066726F6D3E
:10101000204750494F2E00526573657420647565F2
:1010200020746F2077616B652075702066726F6D1C
:101030002053797374656D204F4646206D6F64654B
:10104000207768656E2077616B6575702069732005
:101050007472696767657265642066726F6D20419E
:101060004E41444554454354207369676E616C207A
:1010700066726F6D204C50434F4D502E0052657379
:1010800065742064756520746F2077616B652075C9
:10109000702066726F6D2053797374656D204F46B2
:1010A00046206D6F6465207768656E2077616B659B
:1010B0007570206973207472696767657265642052
:1010C00066726F6D20656E746572696E6720696EF9
:1010D000746F20646562756720696E7465726661FD
:1010E0006365206D6F64652E0052657365742064BE
:1010F000756520746F2077616B652075702066724E
:101100006F6D2053797374656D204F4646206D6F67
:101110006465206279204E4643206669656C6420D0
:101120006465746563742E000A50726F204D696E99
:1011300069206E52463532202D204578616D706CE5
:10114000652053797374656D204F464620536C6556
:10115000657000476F696E6720746F20736C6565FA
:10116000702E2E2E00000000000000000100000084
:101170000200000003000000040000000500000061
:101180000600000007000000080000000900000041
:101190000A0000000B0000000C0000000D00000021
:1011A0000E0000000F000000100000001100000001
:1011B00012000000130000001400000015000000E1
:1011C00016000000170000001800000019000000C1
:1011D0001A0000001B0000001C0000001D000000A1
:1011E0001E0000001F0000000D0A006E616E006905
:1011F0006E66006F766600000000000000000000D0
:10120000A70A0000290A0000110B00001D0B0000B6
:10121000170B0000A50A00009D0A0000250B000026
:10122000C10A0000990A00004300000004000020E9
:0412300000000000BA
:0812340070F2FF7F01000000D1
:10123C000090D0030000000000000000000000003F
:10124C000000000000000000000000000000000092
:10125C000000000028120000000000000000000048
:10126C000000000000000000000000000000000072
:10127C000000000000000000000000000000000062
:10128C000000000000000000000000000000000052
:10129C00000000006D040000190D00004504000062
:0412AC00000000003E
:0400000300000729C9
:00000001FF
