:020000022000DC
:106000000000012079630200B9630200BB63020053
:10601000BD630200BF630200C16302000000000014
:10602000000000000000000000000000597602009F
:10603000C56302000000000079760200C963020017
:10604000CB630200CB63020071800200CB630200CD
:10605000CB630200CB630200CB630200CB63020080
:10606000CB630200CB630200CB630200CB63020070
:10607000CB630200CB630200CB630200CB63020060
:10608000CB63020061740200CB630200CB630200A9
:10609000CB630200CB630200CB630200CB63020040
:1060A000CB630200CB630200CB630200CB63020030
:1060B000CB630200CB630200000000000000000080
:1060C000CB630200CB630200CB630200CB63020010
:1060D000CB630200CB630200CB6302000000000030
:1060E00000000000000000000000000000000000B0
:1060F00000000000000000000000000000000000A0
:10610000000000000000000000000000000000008F
:10611000000000000000000000000000000000007F
:10612000000000000000000000000000000000006F
:10613000000000000000000000000000000000005F
:10614000000000000000000000000000000000004F
:10615000000000000000000000000000000000003F
:10616000000000000000000000000000000000002F
:10617000000000000000000000000000000000001F
:10618000000000000000000000000000000000000F
:1061900000000000000000000000000000000000FF
:1061A00000000000000000000000000000000000EF
:1061B00000000000000000000000000000000000DF
:1061C00000000000000000000000000000000000CF
:1061D00000000000000000000000000000000000BF
:1061E00000000000000000000000000000000000AF
:1061F000000000000000000000000000000000009F
:10620000F1EE103A43F08073E1EE103A704700BFB0
:1062100010B5054C237833B9044B13B10448AFF3E0
:1062200000800123237010BDE4370020000000002F
:10623000A8B9020008B5034B1BB103490348AFF3EB
:10624000008008BD00000000E8370020A8B9020067
:10625000154B002B08BF134B9D46A3F5803A002138
:106260008B460F461348144A121A02F0C8FF0F4B10
:10627000002B00D098470E4B002B00D098470020F1
:10628000002104000D000D48002802D00C48AFF397
:10629000008002F075FF2000290001F05BFF02F092
:1062A0005BFF00BF000008000000012000000000AC
:1062B00000000000E4370020B4420020000000008D
:1062C0000000000010B5114C01210D2001F0F8FB79
:1062D0000F49204601F016FC4FF47A7000F076F872
:1062E00000210D2001F0ECFB0121072001F0E8FB6B
:1062F0000849204601F006FC4FF47A7000F066F879
:1063000000210720BDE8104001F0DABB983B0020D7
:1063100044B6020050B6020010B501210D200B4C0E
:1063200001F08CFB0121072001F088FB20464FF48F
:10633000E13101F0AFFC94F8A33003B9FEE7204649
:106340000349BDE8104001F0DDBB00BF983B0020D1
:1063500060B6020008B501210D2001F06FFB0D2091
:1063600001F0C0FB0820012101F068FB0820BDE816
:10637000084001F0B7BB00BF0A490B4A0B4B9B1A00
:1063800003DD043BC858D050FBDC094809494FF0F5
:10639000AD32026004300439FBD101F09FF9FFF700
:1063A00057FF0000B4B9020000360020E437002097
:1063B00000F8002000080000FEE7FEE7FEE7FEE729
:1063C000FEE7FEE7FEE7FEE7FEE7FEE7034B80029F
:1063D000A3FB0030800900F00BBB00BFD34D62105F
:1063E0002DE9F041044601F027F8344A344D136892
:1063F000013313602B68002B2FD0324EE36A3268D2
:106400002AB33148314907680A689F4238BF0360A0
:106410002F48013203EB83030A6000EB8300E26341
:10642000211D01F003FF01F011F833686BB12A68F8
:10643000E36AD26A9A4208D2264B4FF080525A60E1
:1064400040BFBFF34F8FBFF36F8FBDE8F0812A6865
:10645000D26A9A4298BF2C60D3E72C601368012B54
:1064600002D0E36A174ECCE71948DFF894801A4F40
:10647000144E01F0CBFE194801F0C8FE184801F097
:10648000C5FE184801F0C2FE174801F0BFFE4046A5
:1064900001F0BCFE384601F0B9FE144801F0B6FE2A
:1064A000134801F0B3FE134801F0B0FE124B134A3B
:1064B000C2F800801F60E36AA3E700BF70380020C5
:1064C00000380020D0380020843800208038002098
:1064D0000C38002000ED00E09C380020203800201F
:1064E00034380020483800205C380020BC380020B8
:1064F000E8380020D4380020083800200438002074
:10650000883800202DE9F843DDE90964002C60D0CB
:1065100016B93046BDE8F8830D4697009846022329
:106520003A4684F85130814626633046A52102F070
:1065300066FE2A78236B84F83420043F2A781F44AF
:1065400027F0070702B36B7884F835306B78DBB13E
:10655000AB7884F83630AB78B3B1EB7884F8373069
:10656000EB788BB12B7984F838302B7963B16B7968
:1065700084F839306B793BB1AB7984F83A30AB7938
:1065800013B1EB7984F83B30089D042D28BF042516
:106590000026E5626564201D84F83B60A66401F076
:1065A00041FEC5F1050504F1180001F03BFEE6646B
:1065B00042464946A561246184F8506064623846C9
:1065C00000F0FEFE20602046FFF70AFF2046BDE8EF
:1065D000F8832046BDE8F8832DE9F0479600804611
:1065E00030460D469946099F01F05EFE002869D0AD
:1065F0008246542001F058FE044600285BD0002358
:10660000C0F830A03246504684F85130A52102F03F
:10661000F6FD2A78236B84F83420043E2A781E4441
:1066200026F0070A02B36B7884F835306B78DBB15B
:10663000AB7884F83630AB78B3B1EB7884F8373088
:10664000EB788BB12B7984F838302B7963B16B7987
:1066500084F839306B793BB1AB7984F83A30AB7957
:1066600013B1EB7984F83B30089D042D28BF042535
:106670000026E5626564201D84F83B60A66401F095
:10668000D1FDC5F1050504F1180001F0CBFDE6646C
:10669000A561246184F8506064624A4641465046D0
:1066A00000F08EFE206007B13C602046FFF798FEA8
:1066B0000120BDE8F087504601F008FE4FF0FF30A2
:1066C000BDE8F0874FF0FF30F3E700BF70B584B04E
:1066D000002503AA02A901A8CDE9015501F078FD22
:1066E000019C002C46D00298002843D0039E2063D2
:1066F0000223B600A521324684F8513002F07FFD16
:10670000236B1F4A6263201D84F83850043E84F8CE
:106710003B50E562C4E911551E4401F083FD04F1CC
:10672000180001F07FFD26F007060523A3612A4625
:106730001449E56430462461646284F8505000F0E6
:106740003FFE20602046FFF74BFE0F4B1C6000F021
:10675000DBFD012811D1402383F311880B490C4A3A
:106760000C4B4FF0FF340C6010601D6000F03EFEDB
:1067700004B070BD044B00221A6004B070BD00BFAD
:1067800049444C45756A0200B0380020B4380020F6
:10679000D0380020FC380020024A1368013313600F
:1067A000704700BF7C380020014B1868704700BF5D
:1067B000FC380020024A136818441060704700BF7C
:1067C000FC3800202DE9F04F3B4B1B6883B0002BB9
:1067D00042D13A4B1F6801371F60002F4AD0384B17
:1067E00001931B68BB423BD8364EDFF8EC80DFF8E4
:1067F000ECA0DFF8EC90002525E03368DB68DC686E
:10680000636804F1040B9F42584651D301F038FDF0
:10681000A36A04F118000BB101F032FDE36AD8F865
:10682000002003EB8300934259460AEB800088BFA7
:10683000C8F8003001F0FAFCD9F80030E26ADB6AEF
:106840009A4228BF012533681B68002BD5D1019AD5
:106850004FF0FF33136004E01B4A136801331360E9
:1068600000251A4B1B68002B0CBF2846012003B0E3
:10687000BDE8F08F134E164B3168164A1868306029
:10688000196013680133136033681B683BB90C4B04
:1068900001931A464FF0FF3313601346A1E73368A4
:1068A000074ADB680192DB685B681360134698E770
:1068B000019A1360D5E700BF7C380020FC38002027
:1068C000B438002004380020783800200039002037
:1068D00008380020B8380020843800200C38002008
:1068E000003800202DE9F04700F0A6FD354B1A686E
:1068F000013A1A601C68002C57D1334B1B68002BDF
:1069000053D0DFF8E0A0314E314FDFF8DC90DFF8F4
:10691000DC80336813B3F368DC68251D04F11800CC
:1069200001F0AEFC284601F0ABFCE36A3A6803EBE9
:1069300083009342294609EB800088BF3B6001F049
:1069400075FCD8F80030E26ADB6A9A424FF0010326
:10695000DFD3CAF800303368002BDCD13CB11D4BCB
:106960001A6812683ABB1C4B4FF0FF321A601B4D7D
:106970002C6844B10126FFF725FF08B1CAF8006072
:10698000013CF8D12C60DAF8003073B1144B4FF0B1
:1069900080525A6040BFBFF34F8FBFF36F8F012407
:1069A00000F054FD2046BDE8F087002400F04EFDC5
:1069B0002046BDE8F0871A68074BD268D268526853
:1069C0001A60D4E77C38002070380020BC380020E2
:1069D0008438002004380020B438002078380020A3
:1069E00000ED00E0003900200C38002000380020C5
:1069F00070B548B9184B4FF080525A6040BFBFF392
:106A00004F8FBFF36F8F70BD144A15491368154E31
:106A1000013313600D6804463068043001F030FC27
:106A2000336864195C600FD20F4B18683168043109
:106A300001F00CFC0D4B1A68944238BF1C60FFF744
:106A400051FF0028D6D070BD094B18683168043159
:106A500001F0FCFBF3E700BF00ED00E07C38002014
:106A6000FC3800200038002004380020B438002012
:106A7000083800202DE9F84F3C4E3D4D3D4CDFF8E5
:106A80000891DFF80881DFF808B14FF0805A2368D9
:106A9000D3B100F0D1FCF368DF68381D01F0F0FBE2
:106AA0002B68013B2B602368013B236000F0CEFC88
:106AB00097F85130002B37D0012BE8D1384601F040
:106AC00005FC2368002BE4D12B4B1B68012B06D956
:106AD000CBF804A040BFBFF34F8FBFF36F8F00F020
:106AE000FBFDD9F8003033BBD8F80030DB6A002B4F
:106AF000CDD1214B1B68012BC9D8204B204A1B68E4
:106B000012689B1A012BC2D91E4A13680133136005
:106B1000D9F80030BBB1D8F80030DB6A0BB9164B9E
:106B20001B68FFF7DFFEB2E7386B01F0CFFB38469A
:106B300001F0CCFBABE7D8F80030DB6A002BA6D124
:106B40000D4B1B68A3E7D8F80030DB6A002BE8D1B7
:106B5000094B1B68012BE4D8084B1868084B1B68CD
:106B6000C01A0128DDD900F0D9FCDAE7E8380020A6
:106B700070380020743800200C380020B438002011
:106B8000FC3800207C3800208438002000380020A9
:106B900000ED00E0274B1B68002B40D1264A70B562
:106BA000264C13602268236812681B6B9A423AD9FC
:106BB000234D24492A689300981880000858E0B9AA
:106BC000561EB30098198000085830BB961EB300BB
:106BD00098198000085800BBD61EB3009819800091
:106BE0000858D0B9161FB300981980000858A0B9EA
:106BF000053A930098188000085813449B00CE185B
:106C000008337068406870600B44984204BF406865
:106C10007060C36823602A6070BD3246EDE7064BA2
:106C200001221A60704720682168343101F0CCFAE3
:106C3000BEE700BF7C38002000390020003800206B
:106C4000843800200C38002070B5174D2B680C4696
:106C500003F1180101F0FAFA144B1E682868043099
:106C600001F00EFB631C17D02B68A4195C600BD2DB
:106C70000F4B18682968043101F0E8FA0D4B1A68C7
:106C8000944238BF1C6070BD0B4B18682968BDE882
:106C90007040043101F0DABA296808480431BDE8CF
:106CA000704001F0C3BA00BF00380020FC3800205B
:106CB00004380020B438002008380020D4380020E0
:106CC00070B5194D2B680C46164603F1180101F0FA
:106CD000ADFA164B5EB11B682868043001F0D0FA9B
:106CE000296813480431BDE8704001F09FBA1E685E
:106CF0002868043001F0C4FA2B68A4195C600BD238
:106D00000C4B18682968043101F0A0FA0A4B1A6884
:106D1000944238BF1C6070BD084B18682968BDE8F4
:106D20007040043101F092BA00380020FC38002095
:106D3000D438002004380020B4380020083800205F
:106D400038B5C368DC6804F11805284601F098FAE4
:106D50001A4B1B682BBB251D284601F091FA184AD7
:106D6000E36A116817488B4288BF136003EB830303
:106D7000294600EB830001F059FA134BE26A1B68C5
:106D8000DB6A9A4282BF114B01201860104B1A68CF
:106D9000126898BF00204AB90E4B4FF0FF321A60BC
:106DA00038BD29460C4801F041FAE6E71A68094B5C
:106DB000D268D26852681A6038BD00BF7C380020A3
:106DC000843800200C3800200038002000390020D2
:106DD00004380020B4380020BC380020034A044B9B
:106DE00012681B68C0E90023704700BFB838002054
:106DF000FC380020F8B50D46044600F01DFB2B685A
:106E00001649581C0A6813D0DFF854C0D4E9006052
:106E1000DCF80070BE4201D090421AD9121A934297
:106E20000BD800232B60012500F010FB2846F8BD8D
:106E3000002500F00BFB2846F8BDDCF800009B1A8B
:106E40000A682B60C4E90002002500F0FFFA28461A
:106E5000F8BD012500F0FAFA2846F8BDFC380020FC
:106E6000B8380020014B01221A6070470039002019
:106E7000084B186860B9084B1B6853B9074A084BA0
:106E800010681B68013B984214BF01200220704724
:106E900000207047BC38002000390020D438002082
:106EA00070380020054B1B6833B1054B1B68002B65
:106EB0000CBF02200020704701207047D03800200E
:106EC0007C38002018B3F8B51C4CC36A2268D26A1B
:106ED000934214D28269002A04DB2268D26AC2F18A
:106EE00005028261164D426903EB830305EB8303C0
:106EF0009A420DD02368DB6AC3620120F8BD236883
:106F0000406CDB6A98422CBF00200120F8BD70471E
:106F1000061D0746304601F0B3F92268094BD06AD6
:106F20001A68F862904200D9186000EB800005EB07
:106F30008000314601F07AF90120F8BD00380020C8
:106F40000C3800208438002050B138B5C16A836CF9
:106F5000426C013B9142836400D01BB1002038BDDC
:106F600000207047051D0446284601F089F90A4AA9
:106F7000636C1168E362C3F105008B42A0610748AE
:106F800088BF136003EB830300EB8300294601F005
:106F90004DF9012038BD00BF843800200C38002096
:106FA00048B1426CC36A914238BF11468B4202D04D
:106FB000826C012A00D07047826970B5114DC162A0
:106FC000002A03EB83034269A8BFC1F1050105EB69
:106FD0008303A8BF81619A4200D070BD061D04469C
:106FE000304601F04DF9084BE06A1A68904288BFBC
:106FF000186000EB800005EB80003146BDE8704072
:1070000001F014B90C38002084380020044B1A68B1
:107010001AB119688A6C01328A641868704700BF17
:10702000003800202DE9F04FAD4EDFF8C482AD4DA1
:1070300089B033681C68002C00F08E80DB681C6807
:10704000FFF7AAFBFFF7B0FBD8F8003098420746DD
:107050005DD38442C8F8000040F20B810022E11B9E
:10706000286801F065FFFFF73DFC88B99E4A4FF0A4
:107070008053536040BFBFF34F8FBFF36F8F07E064
:10708000019B039920469847009B002B80F2388192
:1070900028680022694601F0D7FB0028C9D0009B70
:1070A000029C002BECDB636913B1201D01F0E8F8B2
:1070B000FFF77AFBD8F800309842814643D3009B13
:1070C000C8F80090092BE3D8012202FA03F313F465
:1070D000047F69D113F0C70F40F0A1809B06D7D57C
:1070E00094F82C30002BD3D1204601F0EFF8CFE7F5
:1070F000DB68DC68D3F800A004F10409484601F01D
:10710000BFF8636A20469847E369012B36D033689D
:107110001A68002AECD17549C8F800700A68326014
:107120000B60FFF7DFFBB3E7DB68DF68D3F800B085
:1071300007F1040A504601F0A3F87B6A38469847E5
:10714000FB69012B25D033681A68002AECD1674906
:107150000A6832600B60B2E7FFF71EFBFFF724FB03
:10716000D8F8003083420746D1D8604BC8F8007089
:107170001B681A68B2FA82F2520970E7A369534495
:107180009A45494622D263602461306801F05EF876
:10719000BDE7BB695B449B45514627D27B603F619D
:1071A000306801F053F8CEE7019B246103EB09023C
:1071B0004A45A36162602CD8002B3FF469AF4B4B6A
:1071C000211D186801F042F8286862E72B68002B3F
:1071D0009DD00023CDE9043A0694FFF763FE002317
:1071E0001A4604A9286801F0F1F890E72B68002BF3
:1071F000A9D00023CDE9043B0697FFF753FE0023F7
:107200001A4604A9286801F0E1F89CE74B4500D92B
:1072100098B13068211D01F019F8286839E7019B01
:10722000A269246199182CBF0120002049456160A2
:10723000ECD8A9EB03039A42C1D8636A2046984769
:10724000E369012B7FF424AF019BA26928681344F2
:1072500000283FF41EAF0022CDE904230694FFF777
:1072600021FE00231A4604A9286801F0AFF8286817
:107270000FE7FFF737FB3368DB68D3F80C9009F1B1
:10728000040A504600F0FCFFD9F81C30012B04D052
:10729000D9F8243048469847FAE6D9F81830C9F8A2
:1072A0001090E218BA42C9F8042004D95146306857
:1072B00000F0CCFFECE73F1BBB421BD82B68002B38
:1072C000E6D00023CDE90434CDF81890FFF7EAFDAD
:1072D00000231A4604A9286801F078F8D8E700BF0F
:1072E00004390020883B002000ED00E00839002030
:1072F000343B0020034B5146186800F0A7FFC7E756
:10730000029CD0E608390020F0B5204C89B000F08E
:1073100093F82568FDB100F099F82068C8B1002401
:1073200007AA06A905A8CDE9054400F05FFFDDE93D
:1073300005300221CDE90010079A0293144915483F
:107340002346FFF7DFF8144A0346001B18BF01204D
:10735000136009B0F0BD114F114E384600F056FFD2
:10736000304600F053FF0F4A0F4900950F4B17604E
:107370000E600F4A1021202000F0B6FF2060002888
:10738000C9D00C4901F0C2FDC5E700BF883B002011
:1073900024B70200257002008C3B00200C3B00202B
:1073A000203B00200439002008390020383B002011
:1073B0000C3900201CB70200402383F31188FEE73C
:1073C00030B46FF002034FF08075074C40F8045C56
:1073D00040F80C4C40F8081C40F8202C40F8243CA5
:1073E00030BC4438704700BFB97302000F4C08B579
:1073F000E02384F8223000F073F80D4B0D4A002191
:107400001960D4F8883043F47003C4F888305368A6
:1074100043F040435360236943F01003236100F0BD
:1074200009F9402383F31188FEE700BF00ED00E077
:10743000903B002030EF00E0402383F31188024AA4
:107440001368013313607047903B0020034A1368B0
:10745000013B13600BB983F311887047903B002008
:1074600070B51B4B00251D6082B01B680193019B0A
:10747000EFF31186402383F31188164A164BD2F896
:1074800004451D601B680093009BFFF78DF9241ACB
:1074900024F07F44012C0DD844B1FFF793F9054641
:1074A00025B10E4B4FF080525A6040BF86F31188D1
:1074B00002B070BDFFF7F6FC0228EED1013CFFF7E9
:1074C00081F9013C631C45EA0005F8D1E8E700BFFB
:1074D00040110140001001400011014000ED00E0AA
:1074E00030B40B4B0B480C491F24C3F8084501224C
:1074F0000225E024C3F8042302601A604FF4003030
:10750000C3F8445381F8114330BC0860704700BF92
:10751000001001400810014000E100E02DE9F041B9
:10752000804684B0EFF3108272B63B4CA36883B9F7
:107530003A4B3B480121A160D3F880100140216003
:10754000C3F88000D3F8841061604FF0FF31C3F8B6
:10755000841002B962B6334DD5F80475FFF788FC84
:10756000002844D0304E314A464528BF4646BB1914
:107570000121C5F8081323F07F430021C5F84035E9
:107580001160136801934FF48033019AC5F80433F6
:10759000BFF34F8FB8F1000F08D0204A20BFD2F8B8
:1075A0000051D2F8041155EA0103F7D01D4B1F48D2
:1075B0001F4A4FF48031C3F80813002101600068AE
:1075C0000390039811601268029201220299C3F895
:1075D0000423D3F80435114ADB1B23F07F40B0426B
:1075E0004FF4003328BF3046C2F8803180B9A36819
:1075F0005BB1EFF3108372B6084A216811606168CD
:1076000051600022A26003B962B604B0BDE8F08107
:10761000FFF7D0F8EBE700BF9442002000E100E064
:10762000FC06FFBD00100140FDFFFF0040110140BE
:10763000001101400748006880F3088862B661B60F
:10764000BFF34F8FBFF36F8F4FF0E00080F31188CF
:1076500000DF00BF00600200064B19680868B0E850
:10766000F04F80F30988BFF36F8F4FF0000080F375
:107670001188704700380020EFF30980BFF36F8F47
:10768000144B1A681EF0100F08BF20ED108A20E975
:10769000F04F10604DF8043D4FF0400080F311882A
:1076A000BFF34F8FBFF36F8FFFF774FA4FF00000F7
:1076B00080F3118808BC19680868B0E8F04F1EF024
:1076C000100F08BFB0EC108A80F30988BFF36F8FEA
:1076D000704700BF00380020704700BFAB4B1B68ED
:1076E0005A1C30B400F0D080A94A1268062B00F072
:1076F000C080A84B1B78062B00F0B080A34B1B6802
:107700005D1C00F0A480A24A1268062B00F0948051
:10771000A04B1B78062B00F082809C4B1B685C1CE6
:1077200076D09B4A1268062B65D09A4B1B78062BA5
:107730004CD0964B1A68501C13D0954B062A1B68E8
:1077400017D0954AD2F8883043F47003C2F88830D5
:10775000BFF34F8FBFF36F8F904B914A1A6030BCCD
:1077600070478C498F4B09781B680629C3F30313B4
:1077700012D1053B012B40F28E80511C40F0F78066
:10778000844A884B12781B68062AC3F30313D8D1A6
:10779000033B032B40F2C9807E4B1B78062BD0D1D4
:1077A000804B1B684FF0FF32C3F30313033B032BE3
:1077B00040F2CB80764B1B68062AC2D1062BC0D183
:1077C000794A136843F480631360BAE7754B1B680A
:1077D000C3F30313032BACD1744D75482B60754C68
:1077E0007549764A05230360012500203F23256063
:1077F000086013609DE7033A032A96D84FF0804350
:107800000022C3F80C21C3F81021C3F838258CE7F7
:10781000644A604B12681B78C2F3031283E7614B22
:107820001B68C3F30313032B7FF477AF644AD36859
:1078300023F08073D36070E7033A032A3FF668AF02
:10784000604B614A1B68C3F34233136060E7554ADB
:10785000504B12681B78C2F3031256E7514B1B685A
:10786000C3F30313032B7FF449AF584B584A1A60F4
:1078700044E7033A032A3FF63CAF564B564A1B688F
:10788000C3F30423136034E7464A424B12681B7863
:10789000C2F303122AE74FF08052504BD2F804147F
:1078A000C3F82015D2F80814C3F82415D2F80C1424
:1078B000C3F82815D2F81014C3F82C15D2F81414F4
:1078C000C3F83015D2F81814C3F83415D2F81C14C4
:1078D000C3F84015D2F82014C3F84415D2F8241484
:1078E000C3F84815D2F82814C3F84C15D2F82C1454
:1078F000C3F85015D2F83014C3F85415D2F8341424
:10790000C3F86015D2F83814C3F86415D2F83C14E3
:10791000C3F86815D2F840141C48C3F86C15D2F8A7
:1079200044140268C3F8701527E72D4B174A1B68EB
:1079300012682C4903F04F030B60531C1FD1154BE9
:107940001B78062B7FF4FDAE2AE74FF08041D1F87B
:10795000003413F0010F0E4B01D11B682CE70B4ACA
:107960001B6812686FF00100C1F8000424E7084B9F
:10797000062A1B687FF4E5AE033B032BD5D9044BE5
:10798000062A1B687FF4DDAE10E700BF300100104F
:1079900034010010E00F00F000ED00E000360020A0
:1079A0000090D003E80F00F03C170040A005004015
:1079B00010560040885600401856004014560040AB
:1079C000F0ED00E0440200103C05004074C00740A8
:1079D0000DF0ADBA240300104035014000C0004056
:1079E00058020010E40E00401049114AD1F8401529
:1079F000104B30B41160104C4FF0804101224FF415
:107A000000354FF0A040C1F818258A60C4F88050B6
:107A10004FF480314FF0FF34C3F84813C3F8081314
:107A20005A609A60C0F8084530BC704700A000401A
:107A3000943B00200010014000E100E01F2810D816
:107A40001C4B53F8203005290BD8DFE801F0130355
:107A50001B232B0B03F5E0734FF0A042032142F8E8
:107A60002310704703F5E0734FF0A042124942F82B
:107A70002310704703F5E0734FF0A042002142F855
:107A80002310704703F5E0734FF0A0420C2142F839
:107A90002310704703F5E0734FF0A042042142F831
:107AA0002310704703F5E0734FF0A042034942F8FA
:107AB000231070479CB60200040002000C00030073
:107AC0001F2809D8064B53F82020012393404FF07C
:107AD000A04211B1C2F808357047C2F80C357047A2
:107AE0009CB602001F2808D8044B53F820104FF012
:107AF000A04201238B40C2F80C3570479CB60200AF
:107B000000207047036870B505460C465E6849B1B1
:107B1000084601F07FFF214602462846B0472B6801
:107B20005E680446284602220149B047204470BDE1
:107B30002CB7020090F8A300704700BF38B590F949
:107B40009D305909044601221748203103F01F03D4
:107B500002FA03F340F8213023694FF48871C3F827
:107B6000081323695A602369DA6023690025C3F882
:107B7000005522694FF0FF33C2F80C352269C2F874
:107B800014352269C2F80835226904F11400C2F8DC
:107B9000103501F0C1FAD4F8A40001F093F9C4F84B
:107BA000A45084F8A35038BD00E100E0143001F087
:107BB000C5BA00BF143001F0C7BA00BF143001F0DD
:107BC000AFBA00BF90F8A33003B9704710B54FF0BB
:107BD000FF310446D0F8A40000F0C8FF0023D4F819
:107BE000A4001A461946BDE8104000F0EFBB00BFE4
:107BF00010B50368104A5B6882B093428DF8071095
:107C000013D104464FF0FF31D0F8A40000F0AEFFCE
:107C100022699DF8073084F85D300123C2F84835A9
:107C200022691846936002B010BD01220DF10701D0
:107C3000984702B010BD00BF3D7C02002DE9F0471F
:107C40001AB317468846064600F15D0A00254FF034
:107C500001097C1B402C28BF40244FF0FF31D6F88F
:107C6000A40000F083FF08EB05012246504601F016
:107C7000BBFA3369C3F8484533692544AF42C3F8BA
:107C80000890E6D82846BDE8F08715462846BDE8A6
:107C9000F08700BF70B504686F4A246A944240F0D0
:107CA000A08090F8A3200346002A40F099800D465A
:107CB000016990F89F00C1F80C05196993F89E00BE
:107CC000C1F8140593F8A210012900F099801969F0
:107CD000C1F86C25B5F5966F3BD9B5F5166F40F236
:107CE0008580B5F5965F40F29980B5F5165F40F254
:107CF0009780B5F5615F40F29580B5F5964F40F2FB
:107D00009380B5F5E14F40F29180B5F5164F40F202
:107D10008F80B5F5614F40F28E80B5F5963F40F209
:107D20008D80B5F5E13F40F28B80B5F5613F40F2C3
:107D30008A804A4A954240F28C80B5F5E12F40F2A4
:107D40008580B5F5612F94BF4FF070624FF080527F
:107D500001E04FF49E221969414CC1F824251A69AB
:107D60000821C2F800151A6903F15D01C2F8441533
:107D70001A690021C2F820111A6903F15C01C2F8E6
:107D8000341519690122C1F8382519690A60196981
:107D90004FF48870C1F8040393F99D1048096030CE
:107DA00001F01F018A4044F8202093F99D20002A09
:107DB0001FDB1444602284F800231C4693F99D3095
:107DC0002749012503F01F025B0905FA02F241F879
:107DD0002320284600F0D4FC84F8A350C4F8A40063
:107DE00070BD23460022BDE8704018474FF41D22A5
:107DF000B1E71C4902F00F04214460220A76DCE757
:107E00001A6993F8A000C2F810051A6993F8A10046
:107E1000C2F808051A69C2F86C155BE7124A9AE7BE
:107E2000124A98E7124A96E7124A94E7124A92E7F2
:107E30004FF41D028FE74FF46B028CE70F4A8AE77D
:107E40004FF0EB7287E74FF06C7284E74FF0E86217
:107E500081E74FF080627EE7817E020090D00300D0
:107E600000E100E0FCEC00E000B01300005027004F
:107E700000F03A0000A04E0000C0750000903A01EA
:107E800038B590F8A330002B40F09880036990F843
:107E90009F40C3F80C45036990F89E40C3F8144511
:107EA00090F8A230012B036900F08980C3F86C259B
:107EB000B1F5966F3BD9B1F5166F40F28F80B1F5F1
:107EC000965F40F29580B1F5165F40F29380B1F570
:107ED000615F40F29180B1F5964F40F28F80B1F52D
:107EE000E14F40F28D80B1F5164F40F28B80B1F535
:107EF000614F40F28A80B1F5963F40F28980B1F53A
:107F0000E13F40F28780B1F5613F40F28680474B08
:107F1000994240F28880B1F5E12F40F28180B1F5BD
:107F2000612F94BF4FF070634FF0805301E04FF426
:107F30009E2302693E4CC2F8243503690822C3F827
:107F40000025036900F15D02C3F84425036900229E
:107F5000C3F82021036900F15C02C3F834250269EB
:107F60000123C2F838350269136002694FF4887141
:107F7000C2F8041390F99D205109603102F01F02EC
:107F8000934044F8213090F99D30002B29DB1C44AC
:107F9000602384F8003390F99D302549012503F0D2
:107FA0001F025B0905FA02F2044641F82320284625
:107FB00000F0E6FB84F8A350C4F8A40038BD90F8A4
:107FC000A040C3F81045036990F8A140C3F80845E4
:107FD000036942F00102C3F86C2569E74FF41D23E1
:107FE000A7E7144A03F00F04224460231376D2E774
:107FF000114B9EE7114B9CE7114B9AE7114B98E709
:10800000114B96E74FF41D0393E74FF46B0390E792
:108010000E4B8EE74FF0EB738BE74FF06C7388E7F6
:108020004FF0E86385E74FF0806382E790D003006C
:1080300000E100E0FCEC00E000B01300005027007D
:1080400000F03A0000A04E0000C0750000903A0118
:1080500008B5054B1BB1054801F070F800B908BD23
:10806000AFF3008008BD00BF00000000AC3B002063
:1080700010B5114C2369D3F810213AB10022C3F88E
:108080001021D3F83C2572B901221A60D3F82021BF
:1080900002B910BD0021D4F8A400C3F82011BDE836
:1080A000104000F0A5BB94F85C1004F1140001F03E
:1080B00025F82369E8E700BF983B002038B50F4C4E
:1080C0000F4A204600254FF47A7340F8142BC4E978
:1080D000015301F009F80B4B0B4884F8A250D3E987
:1080E0000B320221C4F8A45084F8A350206184F814
:1080F0009D1084F89E2084F89F3038BD983B002066
:1081000038B702009CB602000020004008B5FEF718
:1081100003F90E4B43B10E4B7BB1FEF7D3F800F0E1
:1081200047F8FFF795FFF8E7FEF7CCF800F040F8C6
:10813000FEF7C8F800F03CF8F6E7FEF7C3F800F0E9
:1081400037F8FEF7BFF800F033F8F6E7000000005C
:108150005180020000B583B0FFF746FCFEF7FAF845
:108160000E4B019301234FF480620D4900930D489B
:108170000023FEF731FA4FF4407000F091FFFEF754
:10818000A5FABFF34F8F0849084BCA6802F4E062B2
:108190001343CB60BFF34F8F00BFFDE7403C00208F
:1081A00064B702000D81020000ED00E00400FA0552
:1081B000044B4FF080525A6040BFBFF34F8FBFF364
:1081C0006F8F704700ED00E0704700BF704700BF41
:1081D000044B036010B46423034C0C6013605DF81F
:1081E000044B7047443C0020983C0020054B036042
:1081F00010B44FF48073044C0C6013605DF8044BB2
:10820000704700BF283E00207C3E002000F108039C
:108210004FF0FF310022816002604360C0E9033308
:10822000704700BF00230361704700BF43680268C6
:1082300010B49C688C609C684B60013261609960EE
:108240005DF8044B08610260704700BF30B40D68F0
:108250006B1C11D000F1080200E01A4653681C683C
:10826000AC42FAD904684B60013499608A6051606D
:108270000861046030BC704702695368F2E700BFD0
:1082800042688168036910B4916081685C684A60E3
:108290001A68844208BF5960013A002101611A60DE
:1082A00018685DF8044B704710B50446FEF774FA81
:1082B000204600F089FF0446FEF714FB0CB120466F
:1082C00010BDFFF783FF204610BD00BF50B110B5B1
:1082D0000446FEF761FA204600F07EFFBDE810403C
:1082E000FEF700BB704700BF38B51C469DF8105024
:1082F00043B3002908BF1A460123C4E90F012260D5
:1083000084F84630FFF798F8D4E90F132268A2608A
:1083100001FB03F1CB1A134400200A44FF21A063A0
:10832000E36084F84410626084F8451004F11000A2
:10833000FFF76CFF04F12400FFF768FFFFF786F8F2
:1083400084F84C50204638BDF8B5074615460E4611
:1083500069B100FB01F05030FFF7A6FF044690B36F
:10836000002200F1500380F84620036007E050200F
:10837000FFF79AFF044630B384F846602460C4E9EE
:108380000F76FFF759F8D4E90F132268A26001FBBA
:1083900003F1CB1A134400200A44FF21A063E360D9
:1083A00084F84410626084F8451004F11000FFF76F
:1083B0002DFF04F12400FFF729FFFFF747F884F8A9
:1083C0004C502046F8BD00242046F8BD2DE9F04F62
:1083D000044685B01D4601928846FFF72DF8A26B32
:1083E000E36BA84F4FF000099A424E46C0F08B80D5
:1083F000022D00F006810198002800F03081B9F1CB
:10840000000F00F09580FFF721F8FEF7C5F9FFF7A0
:1084100013F894F84430FF2B08BF84F8446094F8B4
:108420004530FF2B08BF84F84560FFF70FF801A91E
:1084300002A8FEF7DFFC002840F01881FEF7FCFFE1
:10844000A26BE36B9A4277D0FFF700F8FEF7F4FFD8
:1084500094F845304FFA83FABAF1000F1ADD636AD7
:10846000C3B104F1240907E00AF1FF33DBB24FFA8C
:1084700083FA7BB1636A6BB14846FEF761FC002862
:10848000F2D0FEF7EFFC0AF1FF33DBB24FFA83FACA
:10849000002BEFD1FF2384F84530FEF7D7FFFEF71E
:1084A000CBFF94F844304FFA83FABAF1000F1ADD8B
:1084B0002369C3B104F1100907E00AF1FF33DBB20D
:1084C0004FFA83FA7BB123696BB14846FEF738FC5B
:1084D0000028F2D0FEF7C6FC0AF1FF33DBB24FFAF8
:1084E00083FA002BEFD1FF2384F84430FEF7AEFF70
:1084F000FEF7F8F9FEF7A0FFA26BE36B9A424FF08C
:108500000109BFF475AF226CA66B002A40F0FC8015
:1085100025680136002D00F01881A663636A002BE0
:1085200040F08C80FEF792FF012005B0BDE8F08F8F
:1085300002A8FEF753FC66E704F11009FEF786FF78
:1085400048460199FEF780FBFEF776FF94F845A0B8
:108550004FFA8AFABAF1000F1CDD636AD3B104F155
:10856000240B08E00AF1FF3A5FFA8AF34FFA83FA24
:1085700083B1636A73B15846FEF7E2FB0028F1D07D
:108580000AF1FF3AFEF76EFC5FFA8AF34FFA83FABC
:10859000002BEED1FF2384F84530FEF757FFFEF79E
:1085A0004BFF94F844304FFA83FABAF1000F06DC1F
:1085B00015E00AF1FF33DBB24FFA83FA7BB123698E
:1085C0006BB14846FEF7BCFB0028F2D0FEF74AFC30
:1085D0000AF1FF33DBB24FFA83FA002BEFD1FF230E
:1085E00084F84430FEF732FFFEF77CF9002881D191
:1085F0004FF080537B6040BFBFF34F8FBFF36F8F4F
:1086000078E7226CA66B002A82D04146E06800F031
:10861000EBFD236CE26821685B421A448A42E26007
:1086200080F0898062681344E360022D00F083804B
:108630000136A663636A002B3FF474AF04F1240093
:10864000FEF77EFB00283FF46DAF0E4B4FF08052DB
:108650005A6040BFBFF34F8FBFF36F8F62E7009048
:10866000FEF7F4FE009805B0BDE8F08FFEF7E4FEDB
:1086700094F845506DB2002D18DD636AB3B104F172
:10868000240607E000ED00E0013DEBB25DB26BB106
:10869000636A5BB13046FEF753FB0028F4D0013D1E
:1086A000FEF7E0FBEBB25DB2002BF1D1FF2384F8C3
:1086B0004530FEF7CBFEFEF7BFFE94F844506DB296
:1086C000002D16DD2369A3B104F1100605E0013D7C
:1086D000EBB25DB26BB123695BB13046FEF730FBA4
:1086E0000028F4D0013DFEF7BDFBEBB25DB2002BDC
:1086F000F1D1FF2384F84430FEF7A8FEFEF7F2F82C
:10870000002005B0BDE8F08F41465DBBA06800F0D9
:108710006BFDA368216C62680B44934206F101066D
:10872000A360FFF4FAAEA663636A2268A260002B1E
:108730003FF4F8AE82E7002E7FF4EFAE0123A3638F
:10874000636A002B3FF4EEAE78E76068FEF7FCFB4F
:10875000A663636A6560002B7FF470AF00287FF426
:1087600074AFDFE6E06800F03FFD236CE26821684B
:108770005B421A448A42E260BFF457AF52E700BF3F
:10878000F8B506465020FFF78FFD044670B300256C
:1087900001232060C0E90F3580F84650FEF74CFEFB
:1087A000D4E90F322168A56303FB02F39A1A0A4445
:1087B0000B44FF27C4E90131E26084F8447004F1FE
:1087C000100084F84570FFF721FD04F12400FFF745
:1087D0001DFDFEF73BFEC4E90055E56084F84C60E2
:1087E0002B462A4629462046FFF7F0FD2046F8BDD5
:1087F00038B5EFF31184402383F31188826BC36B88
:1088000093420ED990F8453001325BB282635A1C14
:108810000BD001335BB280F84530012084F311881E
:1088200038BD002084F3118838BD436A002BF4D092
:1088300024300D46FEF784FA0028EED0002DECD04F
:1088400001202860EAE700BF2DE9F047044684B024
:1088500088460192FEF7F0FDD4F83890B9F1000F88
:1088600040F09380019B002B00F00A8102A8FEF7E4
:10887000B5FAB34F4E4604F12405FEF7E7FDFDF7C8
:108880008BFFFEF7D9FD94F84430FF2B08BF84F826
:10889000446094F84530FF2B08BF84F84560FEF72C
:1088A000D5FD01A902A8FEF7A5FA002840F08780AF
:1088B000FEF7C2FDA36B002B40F0E880FEF7C6FD7B
:1088C00001992846FEF7C0F9FEF7B6FD94F8453049
:1088D0004FFA83F9B9F1000F06DC15E009F1FF3317
:1088E000DBB24FFA83F97BB1636A6BB12846FEF7BE
:1088F00027FA0028F2D0FEF7B5FA09F1FF33DBB210
:108900004FFA83F9002BEFD1FF2384F84530FEF7AF
:108910009DFDFEF791FD94F844304FFA83FABAF1C9
:10892000000F1ADD2369C3B104F1100907E00AF151
:10893000FF33DBB24FFA83FA7BB123696BB1484650
:10894000FEF7FEF90028F2D0FEF78CFA0AF1FF33A9
:10895000DBB24FFA83FA002BEFD1FF2384F84430C7
:10896000FEF774FDFDF7BEFF00287ED14FF0805367
:108970007B6040BFBFF34F8FBFF36F8FFEF75CFD8F
:10898000D4F83890B9F1000F76D0226C52B1E1687A
:10899000636811449942E16024BF2168E160404668
:1089A00000F022FC09F1FF33A3632369002B40F0A0
:1089B000C980FEF74BFD012004B0BDE8F087FEF74B
:1089C0003BFD94F845304FFA83F9B9F1000F06DC0E
:1089D00015E009F1FF33DBB24FFA83F97BB1636A2B
:1089E0006BB12846FEF7ACF90028F2D0FEF73AFA50
:1089F00009F1FF33DBB24FFA83F9002BEFD1FF23EC
:108A000084F84530FEF722FDFEF716FD94F8443059
:108A10004FFA83FABAF1000F1ADD2369C3B104F1EA
:108A2000100907E00AF1FF33DBB24FFA83FA7BB19A
:108A300023696BB14846FEF783F90028F2D0FEF7B0
:108A400011FA0AF1FF33DBB24FFA83FA002BEFD1B0
:108A5000FF2384F84430FEF7F9FCFDF743FFFEF7EF
:108A6000EBFCA36B63B1FEF7F1FCFEF7E5FCD4F879
:108A70003890B9F1000F88D1019B002B7FF4FDAE37
:108A8000FEF7E4FC002004B0BDE8F087FEF7DEFC52
:108A9000FEF7D2FC94F845304FFA83F9B9F1000F94
:108AA00006DC15E009F1FF33DBB24FFA83F97BB145
:108AB000636A6BB12846FEF743F90028F2D0FEF74F
:108AC000D1F909F1FF33DBB24FFA83F9002BEFD173
:108AD000FF2384F84530FEF7B9FCFEF7ADFC94F8AF
:108AE00044304FFA83FABAF1000F1ADD2369C3B19B
:108AF00004F1100907E00AF1FF33DBB24FFA83FA01
:108B00007BB123696BB14846FEF71AF90028F2D011
:108B1000FEF7A8F90AF1FF33DBB24FFA83FA002B14
:108B2000EFD1FF2384F84430FEF790FCFDF7DAFE26
:108B3000FEF782FCD4F83890B9F1000F9CD024E7FE
:108B400000ED00E004F11000FEF7FAF800283FF411
:108B500030AF054B4FF080525A6040BFBFF34F8F8C
:108B6000BFF36F8F25E700BF00ED00E02DE9F04374
:108B7000044685B000260191FEF75EFCA36BB24F60
:108B8000B0463546002B40F0F380019B002B00F0EF
:108B90005D81B8F1000F00F0FC80FEF757FCFDF797
:108BA000FBFDFEF749FC94F84430FF2B08BF84F826
:108BB000445094F84530FF2B08BF84F84550FEF729
:108BC00045FC01A902A8FEF715F900286CD1FEF7B3
:108BD00033FCA36B002B40F0E080FEF737FC2368EA
:108BE000002B00F03C8104F1240948460199FEF76E
:108BF0002BF8FEF721FC94F845304FFA83F8B8F1D2
:108C0000000F06DC15E008F1FF33DBB24FFA83F802
:108C10007BB1636A6BB14846FEF792F80028F2D048
:108C2000FEF720F908F1FF33DBB24FFA83F8002B8F
:108C3000EFD1FF2384F84530FEF708FCFEF7FCFB7C
:108C400094F844304FFA83F8B8F1000F1ADD236925
:108C5000C3B104F1100907E008F1FF33DBB24FFAAA
:108C600083F87BB123696BB14846FEF769F80028A9
:108C7000F2D0FEF7F7F808F1FF33DBB24FFA83F8D2
:108C8000002BEFD1FF2384F84430FEF7DFFBFDF724
:108C900029FE002864D14FF080537B6040BFBFF3B2
:108CA0004F8FBFF36F8F5BE0FEF7C6FB94F8453044
:108CB0004FFA83F8B8F1000F1ADD636AC3B104F10B
:108CC000240907E008F1FF33DBB24FFA83F87BB1E8
:108CD000636A6BB14846FEF733F80028F2D0FEF71E
:108CE000C1F808F1FF33DBB24FFA83F8002BEFD164
:108CF000FF2384F84530FEF7A9FBFEF79DFB94F8AF
:108D000044304FFA83F8B8F1000F1ADD2369C3B17C
:108D100004F1100907E008F1FF33DBB24FFA83F8E2
:108D20007BB123696BB14846FEF70AF80028F2D000
:108D3000FEF798F808F1FF33DBB24FFA83F8002B07
:108D4000EFD1FF2384F84430FEF780FBFDF7CAFD26
:108D5000FEF772FBA36B002B00F08A80FEF776FB18
:108D6000FEF76AFBA36B4FF00108002B3FF40DAF39
:108D70002268013BA363002A00F09E802369002B38
:108D800040F08980FEF762FB0126304605B0BDE861
:108D9000F08302A8FEF722F8FFE6FEF757FBFEF786
:108DA0004BFB94F845304FFA83F8B8F1000F1ADD09
:108DB000636AC3B104F1240907E008F1FF33DBB2B1
:108DC0004FFA83F87BB1636A6BB14846FDF7B8FF91
:108DD0000028F2D0FEF746F808F1FF33DBB24FFA75
:108DE00083F8002BEFD1FF2384F84530FEF72EFBEC
:108DF000FEF722FB94F844304FFA83F8B8F1000FE5
:108E00001ADD2369C3B104F1100907E008F1FF334B
:108E1000DBB24FFA83F87BB123696BB14846FDF7AB
:108E20008FFF0028F2D0FEF71DF808F1FF33DBB208
:108E30004FFA83F8002BEFD1FF2384F84430FEF77C
:108E400005FBFDF74FFD8BE700ED00E00093FEF71B
:108E5000FDFA009B1E46304605B0BDE8F083FEF7E4
:108E6000EBFA6068FEF72EF80646FEF7EFFABAE670
:108E7000FEF7ECFA002E88D0FEF7DEFA616A19B12F
:108E8000236B1968C1F105016068FEF789F80026B7
:108E9000FEF7DCFA79E704F11000FDF751FF002836
:108EA0003FF470AF064B4FF080525A6040BFBFF3A3
:108EB0004F8FBFF36F8F65E7FEF7A8F860605DE73F
:108EC00000ED00E0104B5A68904208D0DA689042FA
:108ED00008BF012204D090F8463093B170470022B9
:108EE000002110B403EBC20443F8321090F846306E
:108EF000616013B15DF8044B70475DF8044BFFF7F8
:108F0000E5B9FFF7E3B900BFA0420020074B1A689C
:108F10001AB19A6802B17047012210B403EBC2047F
:108F200043F8321060605DF8044B7047A0420020A7
:108F300070B505460C461646FEF77EFA95F84430A5
:108F4000FF2B04BF002385F8443095F84530FF2BF4
:108F500004BF002385F84530FEF778FAAB6B2BB9D8
:108F60003246214605F12400FDF7AAFEFEF764FA19
:108F700095F8454064B2002C16DD6B6AA3B105F18B
:108F8000240605E0013CE3B25CB26BB16B6A5BB1F5
:108F90003046FDF7D5FE0028F4D0013CFDF762FF16
:108FA000E3B25CB2002BF1D1FF2385F84530FEF728
:108FB0004DFAFEF741FA95F8444064B2002C16DDF4
:108FC0002B69A3B105F1100605E0013CE3B25CB2E8
:108FD0006BB12B695BB13046FDF7B2FE0028F4D0CF
:108FE000013CFDF73FFFE3B25CB2002BF1D1FF2360
:108FF00085F84430BDE87040FEF728BA70B5274EBA
:1090000084B04FF0FF3203A93068FFF71DFC002841
:10901000F7D0039C237A6568052B0CD8DFE803F0B2
:109020002F322A241D03D4E90523D4E90301E4697E
:109030000094A847039C25683DB1FDF733FF012844
:10904000284626D0FFF742F9039CFDF72BFF0128A5
:1090500020461BD0FFF73AF9D3E7D4E90523D4E93A
:109060000301A847039CE6E7D4E90412E068A84797
:10907000039CE0E7D4E90301A847039CDBE7A8478A
:10908000039CD8E7E068A847039CD4E700F0A4F865
:10909000B7E700F0A1F8039CD7E700BF80420020AB
:1090A00030B540230B4D83B00446002218460421FE
:1090B0002B60FFF749F9084B084918600223CDE9F6
:1090C0000031A2B2002306490648FDF785FA03B035
:1090D00030BD00BF7C42002080420020844200203E
:1090E0006CB70200FD8F020008B54022002100F09D
:1090F00086F80022C0E9102208BD00BF10B4D0E9F4
:109100001024531C03F03F039C4218BF81545DF8A8
:10911000044B18BF036470470023C0E91033704745
:10912000D0E91023934206D05A1CC35C02F03F02E0
:109130004264184670474FF0FF307047D0E9103056
:10914000181A48BF40307047D0E91023934214BF2B
:10915000C05C4FF0FF30704708B5074B044613B1B1
:109160000021AFF30080054B1868836A03B198476C
:10917000204602F059FA00BF0000000078B7020054
:1091800070B50D4E0D4CA41BA4100025A54209D1AD
:109190000B4E0C4C02F04AFAA41BA4100025A54269
:1091A00005D170BD56F8253098470135EEE756F8E1
:1091B000253098470135F2E7D4370020D437002016
:1091C000D4370020E0370020024B0146186800F039
:1091D0006DB800BF04360020024B0146186800F04D
:1091E00017B800BF0436002010B5431E0A44914250
:1091F00000D110BD11F8014B03F8014FF7E702440D
:109200000346934200D1704703F8011BF9E70000C1
:1092100038B50546002945D051F8043C0C1F002BF9
:10922000B8BFE41801F052FA1F4A1368104633B968
:10923000636014602846BDE8384001F048BAA34294
:109240000CD921686218934204BF1A685B68636096
:1092500004BF521822600460ECE713465A680AB152
:10926000A242FAD919685818A0420BD120680144CB
:10927000581882421960DDD1106852685A60014462
:109280001960D7E702D90C232B60D3E72068211897
:109290008A4204BF11685268626004BF09182160E5
:1092A0005C60C7E738BD00BF8842002070B5CD1CA8
:1092B00025F0030508350C2D38BF0C25002D06467A
:1092C00001DBA94203D90C233360002070BD01F0FB
:1092D000FDF9214A1468214691B9204C23681BB935
:1092E000304600F087FB20602946304600F082FBC4
:1092F000431C24D10C233360304601F0E8F9E4E745
:109300000B685B1B18D40B2B0FD90B60CD50CC18FE
:10931000304601F0DCF904F10B00231D20F00700BA
:10932000C31AD3D05A42E250D0E78C424B6816BFE2
:10933000636013600C46EBE70C464968CCE7C41C3D
:1093400024F00304A04205D0211A304600F052FB5D
:109350000130CFD02560DBE7884200208C4200201E
:109360002DE9FF4755EC104B0D9FDDF830A0002D87
:109370000E4691461946B8BF22462B4627F02007D5
:10938000BBBF05F100431D4600232D23B8BF144683
:10939000462F0B7004D0452F00D10136022100E08A
:1093A000032103AB019302AB00933246534645ECD5
:1093B000104B00F0C5FB472F804602D119F0010F7A
:1093C00026D0462F08EB060911D198F80030302B33
:1093D0000AD1002200232046294602F0A7F818B936
:1093E000C6F10106CAF80060DAF80030994400229C
:1093F00000232046294602F099F838B93022039B11
:109400004B4505D2591C03911A70F8E7CDF80C9022
:10941000039B0E9AA3EB08034046136004B0BDE81B
:10942000F087F7B500290446BABF49422D232B2304
:10943000092904F8022B437020DD0DF107031F46B4
:109440000A2691FBF6F506FB15113031092D03F8BC
:10945000011C03F1FF32294609DC3031023B02F8DE
:10946000011CBB42224604D3101A03B0F0BD1346C0
:10947000E7E713F8012B04F8012BF2E73023194436
:109480008370021DC170EFE72DE9F04F8DB00C46DF
:10949000DDF8588016461F46054601F009F90368B5
:1094A0000493184600F0B6FA00230A93D8F8003067
:1094B0000590073323F0070303F1080294F818A07E
:1094C000D4F800B0C8F80020D3E90023C4E912237F
:1094D000D4E9128929F000430793CDF818804FF0A2
:1094E000FF32A74BDDE9060102F052F870BB4FF0E6
:1094F000FF32A34BDDE9060102F02CF830BB00225D
:1095000000234046494602F01BF810B12D2384F891
:1095100043309C4A9C4BBAF1470F8CBF904698460B
:1095200003232BF00402236122604FF0000900970F
:1095300033460BAA2146284600F0E6F9013040F0F8
:109540008D804FF0FF300DB0BDE8F08F42464B46A6
:109550004046494602F01CF810B18C4A8C4BDAE7C1
:1095600061684B1C4BF480620AA83ED106236360FD
:109570000023CDE9020309AB009349EC108B0DF1F8
:1095800023032260CDF804A061682846FFF7E8FEB7
:109590000AF0DF03472B804609D1099BD81C02DB68
:1095A0006268934247DDAAF1020A5FFA8AFABAF1C9
:1095B000650F099924D80139524604F150000991E8
:1095C000FFF72FFF0A9A1318012A8146236102DC54
:1095D0002268D10701D5013323619DF82330002B88
:1095E000A5D02D2384F84330A1E7BAF1670F00F02E
:1095F0007781BAF1470FBBD10029B9D10123B6E772
:10960000BAF1660F19D1002963680CDD216113B925
:109610002268D20702D501330B442361099BA3655D
:109620004FF00009D9E713B92268D00701D50233FA
:10963000F3E70123F1E74FF0670ADDE909329342CE
:1096400005DB22682361D107E8D50133E5E7002B6C
:10965000D4BFC3F1020301231344DEE723685A0594
:1096600007D42369424631462846B84701302BD1FA
:1096700067E7BAF1650F40F2DC8000220023D4E9ED
:10968000120101F053FF002833D00123414A314633
:109690002846B84701303FF454AFDDE909239A4228
:1096A00002DB2368D8070FD5DDE9042331462846BD
:1096B000B84701303FF445AF4FF0000804F11A09F4
:1096C0000A9B013B434509DC23689B0700F10381AA
:1096D000E0680B9B9842B8BF184634E701234A461E
:1096E00031462846B84701303FF42BAF08F1010856
:1096F000E6E7099B002B2BDC0123264A314628464E
:10970000B84701303FF41DAF099B23B90A9B13B939
:109710002368D907D8D5DDE9042331462846B84760
:1097200001303FF40EAF4FF0000904F11A0A099B13
:109730005B424B4501DC0A9B94E7012352463146CC
:109740002846B84701303FF4FCAE09F10109EEE7C5
:109750000A9AA36D9A42A8BF1A46002A914607DDCD
:109760001346314642462846B84701303FF4E9AE39
:1097700004F11A034FF0000B29EAE979069315E08A
:10978000FFFFEF7F80B702007CB7020088B70200BE
:1097900084B702008CB702000123069A314628469E
:1097A000B84701303FF4CDAE0BF1010BD4F858A00F
:1097B000AAEB09035B45EFDCDDE909239A42D044BB
:1097C00015DB2368DA0712D40A9B0999A3EB0A0276
:1097D000A3EB010A9245A8BF9246BAF1000F0EDC36
:1097E0004FF000082AEAEA7A04F11A0919E0DDE9E3
:1097F000042331462846B8470130E5D1A1E6534657
:10980000424631462846B8470130E9D199E601235E
:109810004A4631462846B84701303FF492AE08F137
:109820000108DDE909239B1AA3EB0A034345EEDC9B
:109830004AE70A9A012A01DCDB073AD501234246AE
:1098400031462846B84701303FF47BAEDDE90423BA
:1098500031462846B847013008F101083FF471AE9F
:109860000A9B002203F1FF3AD4E91201002301F020
:109870005DFEC8B95346424631462846B8470130D6
:109880000ED15EE60123524631462846B8470130E4
:109890003FF457AE08F101080A9B013B4345F1DC58
:1098A0004B4604F15002DEE64FF0000804F11A0ABC
:1098B000F2E70123DFE701234A4631462846B8474D
:1098C00001303FF43EAE08F10108E3680B9A9B1AA1
:1098D0004345F0DCFCE64FF0000804F11909F4E719
:1098E00000293FF48BAE0023CDE9020309AB0093BE
:1098F00049EC108B2260CDF804A00DF1230328461B
:10990000FFF72EFD804648E62DE9F04791461F46B9
:109910008A680B69DDF820809342B8BF1346C9F806
:10992000003091F8432006460C4612B10133C9F8C5
:1099300000302368990642BFD9F800300233C9F8D5
:109940000030256815F0060507D104F1190AE3680F
:10995000D9F800209B1AAB4228DC94F843302268E7
:10996000003318BF012392062DD404F14302394677
:109970003046C047013020D02368E568D9F8002080
:1099800003F00603042B08BFAD1AA36822690CBFBD
:1099900025EAE57500259342C4BF9B1AED184FF0E8
:1099A00000091A344D451AD1002008E0012352461F
:1099B00039463046C047013003D14FF0FF30BDE893
:1099C000F0870135C3E7E1185A1C302081F84300C5
:1099D000224494F8451082F843100233C5E701236E
:1099E000224639463046C0470130E6D009F1010928
:1099F000D8E7000038B5064C00230546084623602A
:109A000001F004FE431C02D1236803B12B6038BD72
:109A1000B0420020034613F8012B002AFBD1181A8C
:109A2000013870472DE9F74F03690C69A34280465E
:109A3000C0F28280013C01F114074FEA840C00F16E
:109A4000140657F8245056F8240006EB0C03013591
:109A500007EB0C090193B0FBF5F595B34FF0000A45
:109A60003846B646D34650F8042B93B205FB03A301
:109A70004FEA134A9BB2ABEB0303120CDEF800B0C3
:109A800005FB02A213FA8BF34FEA124A1FFA82FB7C
:109A9000DEF80020CBEB124202EB23429BB243EAFA
:109AA000024381454FEA224B4EF8043BDBD256F885
:109AB0000C3033B9019B043B9E421A4630D3C8F8A0
:109AC0001040404601F01AF8002825DB01353046E9
:109AD0004FF0000C57F8042BD0F800E093B2ACEB39
:109AE0000303120C13FA8EF3C2EB1E4202EB234265
:109AF0009BB243EA0243B9454FEA224C40F8043B8B
:109B0000E8D256F8242006EB84032AB9043B9E428F
:109B10001A460BD3C8F81040284603B0BDE8F08FB2
:109B20001268043B002ACAD1013CC5E71268043B15
:109B3000002AEFD1013CEAE70020EEE70000000038
:109B40002DE9F04F57EC106B97B0456A069104462B
:109B50000B921293DDF88080CDE900673DB91020AB
:109B6000FFF732FB6062C0E901550560C560636ABA
:109B7000196851B15A684A60012393408B602046AE
:109B800000F0DAFD636A00221A603B1EBBBF23F0BF
:109B90000043019300230122ACBFC8F80030C8F88D
:109BA0000020AF4BDDF8048033EA080314D1129A89
:109BB00042F20F731360009B23B9C8F3130000280F
:109BC00000F04285219BDFF8ACB2002B00F0448509
:109BD0000BF1030300F03EBDDDE900670022002326
:109BE0003046394601F0A2FC814668B1129A012341
:109BF0001360219B002B00F024859A4B219A03F1DE
:109C0000FF3B136000F028BD14AA15A947EC106BA8
:109C1000204600F0EAFFC8F30A550490002D7CD0DE
:109C2000C7F3130343F07F5BB2464BF4401BA5F22E
:109C3000FF35CDF84C9000228B4B5046594601F031
:109C400055F881A3D3E9002301F008FA80A3D3E9F2
:109C5000002301F04DF8064628460F4601F094F91E
:109C60007DA3D3E9002301F0F9F902460B46304603
:109C7000394601F03DF806460F4601F09FFC0022F0
:109C8000824600233046394601F05AFC48B150461E
:109C900001F07AF932463B4601F048FC08B90AF176
:109CA000FF3ABAF1160F59D8704901EBCA01DDE944
:109CB0000023D1E9000101F061FC002850D00AF135
:109CC000FF3A00230F93149B5D1BB5F1010849BFB8
:109CD000C5F10103002305934FF0000858BF059319
:109CE000BAF1000F3EDB0023D044CDF838A0079333
:109CF000069B092B00F29080052BC4BF043B069302
:109D0000069BA3F10203CCBF00250125032B00F223
:109D10008F80DFE803F07D7F3171DDE914531D444E
:109D200005F23240202813DDC0F14000009B08FA04
:109D300000F805F2124023FA00F048EA000001F0B2
:109D400013F901238246A1F1F87B013D139372E7D9
:109D5000009BC0F1200003FA00F0F0E70123B1E717
:109D60000F90B0E7059BA3EB0A030593CAF100032C
:109D7000079300230E93BBE701230A930B9B002B51
:109D800059DD02939946666A00227260042202F14C
:109D900014009842716853D9204600F099FC636A18
:109DA0003060B9F10E0FD3F800B000F2E680002D5C
:109DB00000F0E3809DED007BBAF1000F8DED107B8C
:109DC00074DD2A4A0AF00F0302EBC30393ED007B14
:109DD0004FEA2A16F0068DED087B65D5244BDDE9A8
:109DE0001001D3E9082301F063FACDE9000106F080
:109DF0000F0603251E4F4CE001230A930B9B53448F
:109E000003F1010902934B46012BB8BF0123BAE7C6
:109E10000023B2E70023F0E70125002306930A950B
:109E20004FF0FF3302939946002212230B92AAE7C8
:109E300001230A93F4E70123029399461A46F5E7B2
:109E4000013171605200A2E761436F63A787D23F7F
:109E5000B3C8608B288AC63FFB799F501344D33F19
:109E60000000F07F8DB702000000F83FC8B7020085
:109E7000A0B7020097B70200F10708D5DDE9080195
:109E8000D7E9002301F0EAF8CDE9080101357610A1
:109E90000837002EF0D1DDE90823DDE9000101F0EB
:109EA00007FACDE900011AE00225A3E700F0A0803F
:109EB000CAF100069F4BA04F06F00F0203EBC2034E
:109EC000D3E90023DDE9100101F0C8F8CDE9000174
:109ED000361100230225002E7FD1002BE1D10F9BEC
:109EE000002B00F08780DDE900670022934B3046AD
:109EF000394601F025FB00287CD0B9F1000F79D05C
:109F0000029B002B35DD0AF1FF330893394600220E
:109F10008B4B304601F0A2F8CDE90001029F0135DC
:109F2000284601F031F8DDE9002301F097F800221E
:109F3000844B00F0DDFE0546A1F15076002F5DD187
:109F40000022814BDDE9000100F0D0FE2A463346B5
:109F5000CDE9000101F012FB002840F088822A467A
:109F600006F10043DDE9000101F0EAFA002840F0C3
:109F70007C82DDE91023CDE90023159B002BC0F284
:109F80005081BAF10E0F00F34C816A4B03EBCA0308
:109F900093ED007B0B9B002B8DED027B80F2D88034
:109FA000B9F1000F00F3D48040F05E820022664BCE
:109FB00051EC170B01F052F8DDE9002301F0D4FA5F
:109FC0004F464E46002840F0348231230BF1010504
:109FD0008BF800300AF1010A2FE2F20705D5D7E924
:109FE000002301F03BF8013501237610083772E7B2
:109FF000022574E7CDF820A04F4691E74D4B03EBC7
:10A00000C70353E902010A9B002B47D002460B46C7
:10A0100000204E4901F04CF92A46334600F066FE16
:10A02000CDE90C015D46DDE9000101F0C7FA064605
:10A0300000F0AAFF02460B46DDE9000100F056FEE3
:10A04000303605F8016BDDE90C23CDE9000101F0A4
:10A0500077FA002863D1DDE900230020374900F0BA
:10A0600045FEDDE90C2301F06BFA002840F0B780D3
:10A07000A5EB0B039F427FF77CAF0022304BDDE95D
:10A080000C0100F0EBFF0022CDE90C012C4BDDE9C7
:10A09000000100F0E3FFCDE90001C4E72A463346A2
:10A0A00000F0DCFFCDE90C010BEB07055E46DDE9B6
:10A0B000000101F083FA074600F066FF30370246E0
:10A0C0000B46DDE9000100F011FE06F8017BAE420F
:10A0D000CDE900014FF0000226D11C4BDDE90C0157
:10A0E00000F006FE02460B46DDE9000101F046FAEB
:10A0F000002874D1DDE90C230020144900F0F6FD9E
:10A1000002460B46DDE9000101F01AFA00283FF48F
:10A1100030AF15F8013C302B05F1FF3202D0DDF8ED
:10A1200020A04AE01546F4E7054B00F097FFCDE983
:10A130000001BCE7C8B70200A0B702000000F03F72
:10A140000000244000001C40000014400000E03FDC
:10A15000DDE900675D46DDE902233046394601F05E
:10A16000A7F801F02BFA804600F00EFFDDE902238C
:10A1700000F074FF02460B463046394608F13006BF
:10A1800000F0B4FD05F8016BA5EB0B06B1450246E6
:10A190000B4639D100F0ACFDDDE9022306460F463F
:10A1A00001F0ECF9C8B9DDE902233046394601F087
:10A1B000BDF910B118F0010F0FD10499204600F03D
:10A1C000BBFA0023129A2B700AF101031360219B42
:10A1D000002B00F041821D603EE2CDF820A015F872
:10A1E000012C392A05F1FF3308D19B450AD1089B80
:10A1F0000133089330238BF800305B461A78013224
:10A200001A708CE71D46EAE700229B4B00F026FF00
:10A210000022002306460F4601F088F900289AD054
:10A22000CBE70A9A002A00F08B80069A012A6EDC9E
:10A23000139A002A67D003F23343079F059D059ABE
:10A2400001211A4420460592984400F015FB064669
:10A25000002D0CDDB8F1000F09DD4545059A2B46B0
:10A26000A8BF4346D21A0592ED1AA8EB0308079B34
:10A27000EBB10A9B002B67D08FB131463A4620469E
:10A2800000F09AFB049A01460646204600F0FDFACB
:10A2900004990890204600F04FFA089B0493079B0E
:10A2A000DA1B04D00499204600F086FB04900121BB
:10A2B000204600F0E1FA0E9B0746002B00F0D0810B
:10A2C0001A460146204600F077FB069B012B074605
:10A2D00040DC009B002B39D1019BC3F31303002BFF
:10A2E00036D1019B23F000431B0D1B052BB1059BB1
:10A2F0000133059308F10108012307930E9B002BFE
:10A300002AD1012030E0149BC3F1360395E7079B67
:10A3100009F1FF37BB42BFBF079B0797FA1A0E9B95
:10A32000BBBF9B180E93DF1B0027B9F1000FB5BF11
:10A33000059B059DA3EB09054B46B8BF00237EE7AF
:10A34000079F059D0A9E83E7079AABE70023D4E7A2
:10A35000009BD2E7002307933B6907EB830318694F
:10A3600000F03CFAC0F12000404410F01F0047D03C
:10A37000C0F12003042B3BDD059BC0F11C0003440E
:10A38000059305448044059B002B05DD1A4604997E
:10A39000204600F05FFB0490B8F1000F05DD394660
:10A3A0004246204600F056FB07460F9B53B3394602
:10A3B000049800F0A3FB002824DA00230A22049961
:10A3C000204600F0D0F90A9B04900AF1FF3A002BD6
:10A3D00000F04D81002331460A22204600F0C3F9E7
:10A3E000029B002B06464FDC069B022B4CDD11E046
:10A3F000C9D0059A1C331A4405921D449844C2E7FB
:10A400000346F6E7B9F1000F38DC069B022B35DD79
:10A41000CDF80890029B63B939460522204600F02A
:10A42000A2F901460746049800F068FB00283FF7B0
:10A43000CCAD0B9B5D466FEA030A4FF0000939462D
:10A44000204600F079F9002E3FF4B7AEB9F1000FC5
:10A4500005D0B14503D04946204600F06DF931469C
:10A46000204600F069F9A8E600273E46E1E7DDF85E
:10A4700020A03E46A9E500BF000024400A9BCDF87D
:10A480000890002B00F0FA80002D05DD31462A46A9
:10A49000204600F0DFFA0646079B002B4CD071687F
:10A4A000204600F015F9326902320546920006F1A5
:10A4B0000C010C30FEF798FE01222946204600F0E0
:10A4C000C9FA009BCDF814B003F00103B14607931D
:10A4D000064639460498FFF7A5FA4946054600F1B5
:10A4E0003008049800F00AFB3246009039462046B6
:10A4F00000F01EFBC368024603BB014608900498A7
:10A5000000F0FCFA089A034611462046089300F032
:10A5100013F9089BA3B9069A92B9079A82B9B8F1C0
:10A52000390F29D0009B002B01DD05F13108059B77
:10A530005D1C83F8008082E73046C2E70123E3E731
:10A54000009A002A04DB25D1069A1ABB079A0ABB97
:10A55000002BECDD01220499204600F07BFA3946FD
:10A56000049000F0CBFA002803DCE0D118F0010FD2
:10A57000DDD0B8F1390FD8D1059B059A5D1C392380
:10A58000137015F8013C392B05F1FF324FD0013320
:10A59000137054E7059A002B02F1010506DDB8F1AE
:10A5A000390FE9D008F10108059BC2E7029A05F8C6
:10A5B000018CA5EB0B03934221D000230A220499BE
:10A5C000204600F0D0F8B14504904FF000034FF062
:10A5D0000A024946204605D100F0C5F881460646E4
:10A5E000059576E700F0BFF83146814600230A2240
:10A5F000204600F0B8F80646F2E74FF000090122C5
:10A600000499204600F026FA3946049000F076FAC4
:10A610000028B6DC02D118F0010FB2D115F8013CC8
:10A62000302B05F1FF327FF40AAF1546F6E793456C
:10A6300005D131230AF1010A8BF80030FFE61546F7
:10A640009FE7DFF864B007E0219BDFF860B01BB143
:10A650000BF10803219A1360584617B0BDE8F08F3C
:10A66000069B012B7FF735AE0E9B079349E6029BB5
:10A67000002B03DC069B022B3FF7CCAE5D46394630
:10A680000498FFF7CFF900F1300805F8018B029A22
:10A69000A5EB0B039A42B0DD00230A220499204661
:10A6A00000F061F80490EAE78CB702008EB7020070
:10A6B000044B1B68186A044B002808BF1846F0308A
:10A6C000704700BF0436002068360020704770478E
:10A6D00070B5456A04460E463DB91020FEF774FD7C
:10A6E0006062C0E901550560C560656AEB6883B1C9
:10A6F000636ADB6853F82600B8B9012101FA06F550
:10A700006A1D9200204600F0BFFA60B1C0E9016501
:10A710000EE021220421204600F0B6FA636AE860C8
:10A72000DB68002BE4D1002070BD026843F82620CE
:10A730000023C0E90333F7E770B5446A06460D46C7
:10A740003CB91020FEF740FD7062C0E9014404608E
:10A75000C4603DB1736A6A68DB6853F822102960EF
:10A7600043F8225070BD2DE9F0410D691F460646A1
:10A770000C4601F1140C0023DCF8000081B202FB4E
:10A7800001710F0C000C02FB007089B2013301EB68
:10A7900000419D424FEA10474CF8041BECDCD7B156
:10A7A000A368AB4212DC616830460131FFF790FFCD
:10A7B0002269023204F10C01804692000C30FEF74F
:10A7C00013FD21463046FFF7B7FF444604EB8503EF
:10A7D00001355F6125612046BDE8F081020C12045D
:10A7E0000346B2B90304102013F07F4F04BF1B02CD
:10A7F000083013F0704F04BF1B01043013F0404FBA
:10A8000004BF9B000230002B06DB5B0003D5013048
:10A8100070470020E8E720207047036813F0070224
:10A8200001460BD0DA0723D4980749BF5B089B0881
:10A8300001200B605CBF0B600220704798B2A8B982
:10A840001B0C102013F0FF0F04BF1B0A08301A075F
:10A8500004BF1B0904309A0704BF9B080230DA07C3
:10A8600002D45B0806D001300B6070471046E9E760
:10A87000002070472020704710B50C460121FFF7DB
:10A8800027FF01224461026110BD2DE9F74F1446F4
:10A890000A6923699A42B8BF0B468846BCBFA046E6
:10A8A0001C46D8F81070D4F81090D8F80830D8F8B2
:10A8B000041007EB0906B342B8BF0131FFF708FFE8
:10A8C00000F1140505EB860E2B460022734516D3C6
:10A8D00004F1140208F1140102EB890301EB87076C
:10A8E0000093009B019293420CD8002E03DD5EF88A
:10A8F000043D002B5DD0066103B0BDE8F08F43F846
:10A90000042BE3E7B2F800B0BBF1000F23D0894677
:10A91000AC464FF0000859F8044BDCF800A0A3B295
:10A920001FFA8AFA0BFB03A34FEA144ADCF8004033
:10A9300043444FEA14480BFB0A8404EB1344E246F9
:10A940009BB243EA04434F454FEA14484AF8043B9C
:10A950002BD8CCF80480019BB3F802A00432BAF1E2
:10A96000000F20D02B688946A8464FF0000BB9F89D
:10A9700000C0B8F802400AFB0C445C44C4469BB2D9
:10A9800043EA04434CF8043B59F8043BB8F804B0DC
:10A990001B0C0AFB03B303EB14434F454FEA134B65
:10A9A00005D8C8F8043004359BE7D446B3E7E04641
:10A9B000DDE7013E99E700002DE9F843154612F066
:10A9C000030206460F4607D0013A214C002354F8F3
:10A9D0002220FFF7C8FE0746AD1035D0746A3CB997
:10A9E0001020FEF7F1FB7062C0E901440460C4600E
:10A9F000D6F82480D8F808404CB940F2712130468E
:10AA0000FFF73AFF0023C8F80800044603604FF040
:10AA10000008EB070AD5394622463046FFF735FFD6
:10AA2000394681463046FFF787FE4F466D100BD002
:10AA3000206838B9224621463046FFF726FF2060BD
:10AA4000C0F800800446E4E73846BDE8F88300BF5C
:10AA500090B802002DE9F0470C464FEA621A2369CC
:10AA600049680AEB0309A3680746164609F1010580
:10AA7000AB4232DB3846FFF72BFE0023804600F165
:10AA800014011A4653452BDB20692AEAEA7A04F1BD
:10AA9000140316F01F0201EB8A0103EB800C25D092
:10AAA000C2F1200E00201E688A46964030434AF8C4
:10AAB000040B53F8040B9C4520FA0EF014D84860A0
:10AAC00008B109F10205013D3846C8F81050214689
:10AAD000FFF732FE4046BDE8F08701315B00C7E773
:10AAE00041F823200133CDE75146DCE7043953F820
:10AAF000042B41F8042F9C45F9D8E4E703690A695F
:10AB00009B1A30B50CD192001430143184181144C2
:10AB100054F8045D51F8042D954203D005D3012368
:10AB2000184630BDA042F3D3FAE74FF0FF33F7E702
:10AB30002DE9F0470D460746114628461446FFF713
:10AB4000DDFF061E08D131463846FFF7C1FD01235F
:10AB5000C0E90436BDE8F087A4BF23462C4638463A
:10AB60006168A6BF1D4600260126FFF7B1FD2B69CF
:10AB7000C660266905F1140904F1140202EB860788
:10AB800009EB830800F114054FF0000E52F804ABF6
:10AB900059F8044B1EFA8AF1A3B2C91A230CC3EB6D
:10ABA0001A4303EB214389B24FEA234EC84541EAD9
:10ABB0000343944645F8043BE8D8BC4504D355F814
:10ABC000043D83B10661C5E75CF8041B1EFA81F3FE
:10ABD0001A1402EB11429BB243EA02434FEA224E9F
:10ABE00045F8043BE9E7013EE9E72DE9F7430E4666
:10ABF000012159EC108B1546FFF76AFDC9F30A5481
:10AC00000746C9F3130334BB0193B8F1000327D0FF
:10AC100002A840F8083DFFF700FE0099F0B1019A44
:10AC2000C0F1200302FA03F30B43C2407B6101929F
:10AC3000019BBB61002B14BF022101213961C4B10A
:10AC4000A4F2334404443460C0F13500286038462F
:10AC500003B0BDE8F08343F48013D5E77961E7E7FB
:10AC600001A8FFF7DAFD019B7B61012139612030EA
:10AC7000E5E707EB8103A0F2324030601869FFF787
:10AC8000ADFDC0EB4110E1E738B502FB01F4214610
:10AC9000FEF70CFB054618B122460021FEF7AFFA7D
:10ACA000284638BD82B001B901A942B14BB1137831
:10ACB0000B601278101C18BF012002B070471046BC
:10ACC000FBE76FF00100F8E749B1FF2A85BF8A234F
:10ACD00003600A704FF0FF3098BF012070470846AC
:10ACE0007047000081F0004102E000BF83F00043A4
:10ACF00030B54FEA41044FEA430594EA050F08BF17
:10AD000090EA020F1FBF54EA000C55EA020C7FEADA
:10AD1000645C7FEA655C00F0E2804FEA5454D4EB57
:10AD20005555B8BF6D420CDD2C4480EA020281EA21
:10AD3000030382EA000083EA010180EA020281EA59
:10AD40000303362D88BF30BD11F0004F4FEA0131AB
:10AD50004FF4801C4CEA113102D0404261EB4101BA
:10AD600013F0004F4FEA03334CEA133302D0524240
:10AD700063EB430394EA050F00F0A780A4F10104FC
:10AD8000D5F1200E0DDB02FA0EFC22FA05F2801836
:10AD900041F1000103FA0EF2801843FA05F359411C
:10ADA0000EE0A5F120050EF1200E012A03FA0EFC9B
:10ADB00028BF4CF0020C43FA05F3C01851EBE371C5
:10ADC00001F0004507D54FF0000EDCF1000C7EEBE2
:10ADD00000006EEB0101B1F5801F1BD3B1F5001F20
:10ADE0000CD349085FEA30004FEA3C0C04F101043F
:10ADF0004FEA445212F5800F80F09A80BCF1004F68
:10AE000008BF5FEA500C50F1000041EB045141EAE9
:10AE1000050130BD5FEA4C0C404141EB010111F4EA
:10AE2000801FA4F10104E9D191F0000F04BF014695
:10AE30000020B1FA81F308BF2033A3F10B03B3F173
:10AE400020020CDA0C3208DD02F1140CC2F10C0203
:10AE500001FA0CF021FA02F10CE002F11402D8BF61
:10AE6000C2F1200C01FA02F120FA0CFCDCBF41EA2D
:10AE70000C019040E41AA2BF01EB0451294330BDFC
:10AE80006FEA04041F3C1CDA0C340EDC04F11404D9
:10AE9000C4F1200220FA04F001FA02F340EA0300B0
:10AEA00021FA04F345EA030130BDC4F10C04C4F1F6
:10AEB000200220FA02F001FA04F340EA03002946D6
:10AEC00030BD21FA04F0294630BD94F0000F83F420
:10AED000801306BF81F480110134013D4EE77FEA03
:10AEE000645C18BF7FEA655C29D094EA050F08BF4F
:10AEF00090EA020F05D054EA000C04BF1946104630
:10AF000030BD91EA030F1EBF0021002030BD5FEA73
:10AF1000545C05D14000494128BF41F0004130BD9B
:10AF200014F580043CBF01F5801130BD01F00045EF
:10AF300045F0FE4141F470014FF0000030BD7FEA62
:10AF4000645C1ABF194610467FEA655C1CBF0B465D
:10AF5000024650EA013406BF52EA033591EA030F74
:10AF600041F4002130BD00BF90F0000F04BF00216C
:10AF7000704730B54FF4806404F132044FF000059F
:10AF80004FF0000150E700BF90F0000F04BF002118
:10AF9000704730B54FF4806404F1320410F000457E
:10AFA00048BF40424FF000013EE700BF42004FEA79
:10AFB000E2014FEA31014FEA02701FBF12F07F43F6
:10AFC00093F07F4F81F06051704732F07F4208BFAD
:10AFD000704793F07F4F04BF41F40021704730B5B4
:10AFE0004FF4607401F0004521F000411CE700BF00
:10AFF00050EA010208BF704730B54FF000050AE083
:10B0000050EA010208BF704730B511F0004502D583
:10B01000404261EB41014FF4806404F132045FEA85
:10B02000915C3FF4D8AE4FF003025FEADC0C18BF2E
:10B0300003325FEADC0C18BF033202EBDC02C2F120
:10B04000200300FA03FC20FA02F001FA03FE40EAB2
:10B050000E0021FA02F11444BDE600BF70B54FF0B6
:10B06000FF0C4CF4E06C1CEA11541DBF1CEA135594
:10B0700094EA0C0F95EA0C0F00F0DEF82C4481EAFC
:10B08000030621EA4C5123EA4C5350EA013518BF1C
:10B0900052EA033541F4801143F4801338D0A0FB09
:10B0A00002CE4FF00005E1FB02E506F00042E0FBB6
:10B0B00003E54FF00006E1FB03569CF0000F18BFBC
:10B0C0004EF0010EA4F1FF04B6F5007F64F5407464
:10B0D00004D25FEA4E0E6D4146EB060642EAC621F7
:10B0E00041EA55514FEAC52040EA5E504FEACE2E64
:10B0F000B4F1FD0C88BFBCF5E06F1ED8BEF1004F67
:10B1000008BF5FEA500E50F1000041EB045170BDE2
:10B1100006F0004646EA010140EA020081EA030126
:10B12000B4EB5C04C2BFD4EB0C0541EA045170BD22
:10B1300041F480114FF0000E013C00F3AB8014F19C
:10B14000360FDEBF002001F0004170BDC4F10004E5
:10B15000203C35DA0C341BDC04F11404C4F1200566
:10B1600000FA05F320FA04F001FA05F240EA0200C1
:10B1700001F0004221F0004110EBD37021FA04F6F7
:10B1800042EB06015EEA430E08BF20EAD37070BDB1
:10B19000C4F10C04C4F1200500FA04F320FA05F010
:10B1A00001FA04F240EA020001F0004110EBD37012
:10B1B00041F100015EEA430E08BF20EAD37070BD82
:10B1C000C4F1200500FA05F24EEA020E20FA04F35B
:10B1D00001FA05F243EA020321FA04F001F000410A
:10B1E00021FA04F220EA020000EBD3705EEA430E7B
:10B1F00008BF20EAD37070BD94F0000F0FD101F0AA
:10B200000046400041EB010111F4801F08BF013CE2
:10B21000F7D041EA060195F0000F18BF704703F020
:10B220000046520043EB030313F4801F08BF013DA7
:10B23000F7D043EA0603704794EA0C0F0CEA135563
:10B2400018BF95EA0C0F0CD050EA410618BF52EA1D
:10B250004306D1D181EA030101F000414FF0000023
:10B2600070BD50EA410606BF1046194652EA430631
:10B2700019D094EA0C0F02D150EA013613D195EAA5
:10B280000C0F05D152EA03361CBF104619460AD1ED
:10B2900081EA030101F0004141F0FE4141F47001F7
:10B2A0004FF0000070BD41F0FE4141F4780170BDE7
:10B2B00070B54FF0FF0C4CF4E06C1CEA11541DBF4C
:10B2C0001CEA135594EA0C0F95EA0C0F00F0A7F84E
:10B2D000A4EB050481EA030E52EA03354FEA01317B
:10B2E00000F088804FEA03334FF0805545EA13138E
:10B2F00043EA12634FEA022245EA111545EA106556
:10B300004FEA00260EF000419D4208BF964244F1EC
:10B31000FD0404F5407402D25B084FEA3202B61A0B
:10B3200065EB03055B084FEA32024FF480104FF4DF
:10B33000002CB6EB020E75EB030E22BFB61A754653
:10B3400040EA0C005B084FEA3202B6EB020E75EBE6
:10B35000030E22BFB61A754640EA5C005B084FEA4E
:10B360003202B6EB020E75EB030E22BFB61A75461B
:10B3700040EA9C005B084FEA3202B6EB020E75EB26
:10B38000030E22BFB61A754640EADC0055EA060EE7
:10B3900018D04FEA051545EA16754FEA06164FEA2A
:10B3A000C30343EA52734FEAC2025FEA1C1CC0D1D6
:10B3B00011F4801F0BD141EA00014FF000004FF063
:10B3C000004CB6E711F4801F04BF01430020B4F124
:10B3D000FD0C88BFBCF5E06F3FF6AFAEB5EB030CDC
:10B3E00004BFB6EB020C5FEA500C50F1000041EBD9
:10B3F000045170BD0EF0004E4EEA113114EB5C04A6
:10B40000C2BFD4EB0C0541EA045170BD41F4801178
:10B410004FF0000E013C90E645EA060E8DE60CEA80
:10B42000135594EA0C0F08BF95EA0C0F3FF43BAF9D
:10B4300094EA0C0F0AD150EA01347FF434AF95EA54
:10B440000C0F7FF425AF104619462CE795EA0C0F38
:10B4500006D152EA03353FF4FDAE1046194622E705
:10B4600050EA410618BF52EA43067FF4C5AE50EADF
:10B4700041047FF40DAF52EA43057FF4EBAE12E7CF
:10B480004FF0FF3C06E000BF4FF0010C02E000BFB0
:10B490004FF0010C4DF804CD4FEA410C7FEA6C5C93
:10B4A0004FEA430C18BF7FEA6C5C1BD001B050EA36
:10B4B000410C0CBF52EA430C91EA030F02BF90EA21
:10B4C000020F0020704710F1000F91EA030F58BFE0
:10B4D000994208BF90422CBFD8176FEAE37040F042
:10B4E000010070474FEA410C7FEA6C5C02D150EAE0
:10B4F000013C07D14FEA430C7FEA6C5CD6D152EA9B
:10B50000033CD3D05DF8040B704700BF844610465F
:10B5100062468C461946634600E000BF01B5FFF75E
:10B52000B7FF002848BF10F1000F01BD4DF808ED2E
:10B53000FFF7F4FF0CBF012000205DF808FB00BFFF
:10B540004DF808EDFFF7EAFF34BF012000205DF859
:10B5500008FB00BF4DF808EDFFF7E0FF94BF0120A6
:10B5600000205DF808FB00BF4DF808EDFFF7CEFFA7
:10B5700094BF012000205DF808FB00BF4DF808EDE6
:10B58000FFF7C4FF34BF012000205DF808FB00BFB7
:10B590004FEA410C7FEA6C5C02D150EA013C0AD1CF
:10B5A0004FEA430C7FEA6C5C02D152EA033C02D1C1
:10B5B0004FF0000070474FF0010070474FEA410222
:10B5C00012F5001215D211D56FF47873B3EB6252F5
:10B5D00012D94FEAC12343F0004343EA505311F01C
:10B5E000004F23FA02F018BF404270474FF00000AE
:10B5F000704750EA013005D111F0004008BF6FF0EC
:10B60000004070474FF00000704700BF044A0549F2
:10B610001368002B08BF0B4618441060184670478B
:10B6200090420020B4420020FEE700BFF8B500BF02
:10B63000F8BC08BC9E467047F8B500BFF8BC08BC13
:10B640009E467047426C696E6B2052454421000053
:10B65000426C696E6B20475245454E210000000048
:10B6600050726F204D696E69206E52463532202D22
:10B670002076302E38202D20426C696E6B2052458A
:10B6800044207468656E20475245454E204F6E62D7
:10B690006F617264204C454473000000000000009C
:10B6A0000100000002000000030000000400000090
:10B6B0000500000006000000070000000800000070
:10B6C000090000000A0000000B0000000C00000050
:10B6D0000D0000000E0000000F0000001000000030
:10B6E0001100000012000000130000001400000010
:10B6F00015000000160000001700000018000000F0
:10B70000190000001A0000001B0000001C000000CF
:10B710001D0000001E0000001F000000546D72514B
:10B7200000000000546D7220537663000D0A000083
:10B730000000000000000000F17B02003D7C0200E0
:10B74000017B0200AD7B0200BD7B0200B57B0200E5
:10B75000C57B0200957C0200817E02003D7B0200D9
:10B76000357B02006C6F6F700000000043616C6CF1
:10B770006261636B0000000008360020494E4600FD
:10B78000696E66004E414E006E616E003000496E7B
:10B7900066696E697479004E614E00000000000019
:10B7A0000080E03779C34143176E05B5B5B89346BD
:10B7B000F5F93FE9034F384D321D30F94877825A89
:10B7C0003CBF737FDD4F1575000000000000F03FA7
:10B7D000000000000000244000000000000059406C
:10B7E0000000000000408F40000000000088C340BF
:10B7F00000000000006AF8400000000080842E4134
:10B8000000000000D01263410000000084D797417F
:10B810000000000065CDCD41000000205FA0024285
:10B82000000000E876483742000000A2941A6D42FA
:10B83000000040E59C30A2420000901EC4BCD642ED
:10B8400000003426F56B0C430080E03779C3414398
:10B8500000A0D8855734764300C84E676DC1AB430E
:10B86000003D9160E458E143408CB5781DAF15442C
:10B8700050EFE2D6E41A4B4492D54D06CFF0804407
:10B88000F64AE1C7022DB544B49DD9794378EA441C
:10B8900005000000190000007D0000004300504F2B
:10B8A000534958002E000020202020202020202056
:10B8B0002828282828202020202020202020202060
:10B8C0002020202020202088101010101010101090
:10B8D00010101010101010040404040404040404D4
:10B8E000041010101010101041414141414101015C
:10B8F0000101010101010101010101010101010138
:10B900000101101010101010424242424242020245
:10B910000202020202020202020202020202020207
:10B9200002021010101020000000000000000000B3
:10B930000000000000000000000000000000000007
:10B9400000000000000000000000000000000000F7
:10B9500000000000000000000000000000000000E7
:10B9600000000000000000000000000000000000D7
:10B9700000000000000000000000000000000000C7
:10B9800000000000000000000000000000000000B7
:10B9900000000000000000000000000000000000A7
:0CB9A0000000000000000000000000009B
:08B9AC00A4A8FF7F01000000C8
:10B9B4000090D003083600200000000000000000C2
:10B9C4000000000000000000000000000000000073
:10B9D4000000000000000000000000000000000063
:10B9E4000000000000000000000000000000000053
:10B9F4000000000000000000000000000000000043
:10BA04000000000000000000000000000000000032
:10BA140000000000000000004300000000000000DF
:10BA24000000000000000000000000000000000012
:10BA340000000000000000004300000000000000BF
:10BA440000000000000000000000000000000000F2
:10BA5400000000000000000043000000000000009F
:10BA640000000000000000000000000000000000D2
:10BA7400000000000000000043000000000000007F
:10BA840000000000000000000000000000000000B2
:10BA9400000000000000000043000000000000005F
:10BAA4000000000000000000000000000000000092
:10BAB400000000000000000043000000000000003F
:10BAC4000000000000000000000000000000000072
