:108000003DB8F3960000000020000000642F00003F
:10801000000000000100000000000000000000005F
:1080200000000120D90000003501000037010000E8
:108030000000000000000000000000000000000040
:10804000000000000000000000000000470B0000DE
:1080500000000000000000008D0B0000B70B0000C6
:1080600045010000450100004501000045010000F8
:1080700045010000450100004501000045010000E8
:1080800045010000450100004501000045010000D8
:1080900045010000450100004501000045010000C8
:1080A00045010000450100004501000045010000B8
:1080B00045010000450100004501000045010000A8
:1080C0004501000045010000450100004501000098
:1080D0004501000045010000000000000000000014
:1080E0004501000045010000450100004501000078
:1080F00045010000450100004FF000000C4A0D4B07
:108100009A42BCBF42F8040BFAE70B490B4A0C4BEE
:108110009B1A03DD043BC858D050FBDC09480A49D0
:1081200000F022F80948804700F026F80848004788
:10813000F4000020381A0020482F0000D80000204A
:10814000F4000020381A002050FE002055020000E4
:1081500035040000FEE7FEE7FEE7FEE7FEE7FEE788
:10816000FEE7FEE7FEE700BF024BC3E900019860AF
:10817000704700BFD80000204FF080430122C3F8B1
:1081800078257047084B1B68DB0700D501BEBFF39D
:108190004F8F0649064BCA6802F4E0621343CB6076
:1081A000BFF34F8F00BFFDE7F0ED00E000ED00E012
:1081B0000400FA05024B186800F00100704700BF88
:1081C000F0ED00E04FF080430C4AD3F81814114052
:1081D000B1F1011F11D001210020D960C3F80401C1
:1081E000C3F818159960D3F804110029FBD0D3F80F
:1081F00018141140B1F1011FF5D1704703000100BF
:10820000094B1B78062B0CD1084B1B681A0708D1A9
:10821000074B186800F0F000A0F1300358425841B5
:1082200070470020704700BFE00F00F0E40F00F03F
:10823000E80F00F00C4B1B78062B10D10B4B1B6882
:108240001A070CD10A4B186800F0F003302B08D045
:1082500000F0E000A0F14003584258417047002070
:1082600070470120704700BFE00F00F0E40F00F0FE
:10827000E80F00F008B5FFF7C3FF10B1634B644A85
:108280001A60FFF7D7FF28B1624B634A1B68C3F33C
:1082900042331360FFF7B4FF20B1604AD36823F084
:1082A0008073D360FFF7C6FF40B14FF080430022D8
:1082B000C3F80C21C3F81021C3F83825FFF7A0FF3D
:1082C00010B1574B03221A60FFF79AFF40B1554B8C
:1082D00005221A6001229A6700229A603F225A60A2
:1082E000514B1B78062B50D1504B1B681A074CD1B1
:1082F0004F4B1B6803F0F003502B46D14FF08052D8
:108300004C4BD2F80414C3F82015D2F80814C3F863
:108310002415D2F80C14C3F82815D2F81014C3F899
:108320002C15D2F81414C3F83015D2F81814C3F869
:108330003415D2F81C14C3F84015D2F82014C3F831
:108340004415D2F82414C3F84815D2F82814C3F8F9
:108350004C15D2F82C14C3F85015D2F83014C3F8C9
:108360005415D2F83414C3F86015D2F83814C3F891
:108370006415D2F83C14C3F86815D2F84014C3F859
:108380006C15D2F84424C3F87025FFF753FF28B1C9
:10839000294B2A4A1B6803F04F0313604FF0102348
:1083A000D3F80C32DB0729D5254B0122C3F804256D
:1083B000D3F80024002AFBD04FF01022D2F80C3260
:1083C00023F00103C2F80C321D4B1A46D3F80014F7
:1083D0000029FBD00021C3F80415D2F80034002B8B
:1083E000FBD0BFF34F8F1749174BCA6802F4E06206
:1083F0001343CB60BFF34F8F00BFFDE7134B144A0D
:108400001A60BDE8084000F05DB800BF74C00740C6
:108410000DF0ADBA440200103C050040F0ED00E064
:10842000A005004010560040E00F00F0E40F00F0FF
:10843000E80F00F000C0004058020010E40E0040B9
:1084400000E0014000ED00E00400FA05E400002037
:108450000090D003002108B5084600F003F800F0B2
:1084600045F870471FB500F025F847F2305000F08E
:1084700011F948B1FFF79EFE00B101BE00231A4674
:108480001946184600F0D8FA00F0CAFC01A801F01D
:10849000FDF80028EED1019B1889039B184400F0D9
:1084A000DEF800000028024818BF0020704700BF17
:1084B0005C2D000008B5FFF785FEBDE8084000F020
:1084C00025B90000064B07498B4205D00022885889
:1084D00098500432D82AFAD1034A9360704700BFFB
:1084E000000000200000000000ED00E008B5FFF7EC
:1084F00049FE0000064B074AD2F80014012904D0B7
:10850000013BF9D14FF0FF3070470020704700BFAA
:10851000A086010000E0014070B50D46FFF7EAFFBC
:10852000D0B9EFF3108672B60D4C0223C4F80435AF
:10853000FFF7E0FF68B9C4F80855FFF7DBFF003824
:1085400018BF012040420023C4F8043506B962B6C2
:1085500070BD4FF0FF30F6E74FF0FF30F8E700BF97
:1085600000E00140002070472DE9F3470C46164615
:108570001D46FFF7BFFF002851D1EFF3108872B6F8
:10858000284B012214F0030AC3F8042526D0FFF774
:10859000B1FF60B14FF0FF30224B0022C3F8042539
:1085A000B8F1000F00D162B602B0BDE8F08724F048
:1085B0000309CAF10407D9F800300193AF4228BF7C
:1085C0002F4601AB314603EB0A003A4600F046FB6A
:1085D000019BC9F800303C44ED1B3E44032D14D8E8
:1085E00065B1236801932A46314601A800F036FBA5
:1085F000FFF780FF0028CDD1019B2360FFF77AFFB2
:10860000003818BF01204042C6E7FFF773FF00287B
:10861000C0D156F8043B44F8043B043DDEE74FF07C
:10862000FF30C1E700E0014008B510461A4600F0EF
:1086300015FB002008BD7F2908B509DDFFF7BAFD4D
:1086400000B101BE00231A461946184600F0F4F99D
:10865000090311604FF480521A60002008BDD0E970
:10866000003283F30888104708B5094BD3F8042378
:10867000D2070CD50022C3F80021FFF79BFD00B103
:1086800001BE00231A461946184600F0D5F908BD68
:1086900000000140184A08B50123C2F80C35174BF9
:1086A000984209D9FFF786FD00B101BE00231A46A2
:1086B0001946184600F0C0F9602343437D21B3FBFF
:1086C000F1F303EB40100E4BC2F804059B680D4913
:1086D000C3F880100C4BE02183F810134FF4803165
:1086E000C3F880111960D2F8083543F00103C2F8CD
:1086F0000835002008BD00BF00000140AAAAAA0258
:1087000000ED00E04906000000E100E007B50021AF
:10871000084600F0F9F848B1FFF74CFD00B101BE82
:1087200000231A461946184600F086F9094800F059
:108730009DF903460028EFD1074A0192074A0092AB
:1087400007490848012200F0A5F90028E4D103B048
:108750005DF804FB40420F00962D0000F926000052
:10876000902D0000F4000020002809DB43090122BD
:1087700000F01F0002FA00F04033024A42F82300E2
:10878000704700BF00E100E038B50369EFF31085E2
:1087900072B6D3F80415D3F8042144685AB104F131
:1087A000807400224460D3F80415C3F8042190F9C2
:1087B0000100FFF7D9FF41EA040005B962B638BDF0
:1087C00030B484780369BCB34FF48022C3F8082323
:1087D000D3F80445D3F8045142681DB1D3F80445D9
:1087E00002F1807222438A1A002A4FF0010506DC4A
:1087F000C3F8085330BC90F90100FFF7B5BF022A57
:1088000007DCC3F80453D3F804359C42F2D130BCE2
:108810007047B2F1807F34BF21F07F4104F500043E
:108820004FF48022C3F8085334BFC3F84815C3F887
:108830004845C3F80423EAE74FF40022C3F80823AD
:10884000C3F84C15C3F84C41C3F8042301229A64C1
:10885000D3F84835591A0029D9DBCBE72DE9F04781
:10886000284C2669D6F84C3113B10023C6F84C3198
:10887000A3680133A360D6F808331B033CD5EFF39C
:10888000108772B6DFF87C904FF001084FF0000AB5
:10889000656945B1A3789BB14846FFF775FFEB6862
:1088A000C01A002812DA6369F3B9A27823692AB3DF
:1088B0004FF48022C3F808230122C3F8082317E0ED
:1088C0002369C3F84880D3F84805E8E7D5E90432BE
:1088D00043B15A616A691360D5E90130C5F814A043
:1088E0009847D5E7A261F5E7D9680648FFF768FF22
:1088F00007B962B6D6F84C31BDE8F0874FF40022D4
:10890000DBE700BF6019002005281DDC0F4B53F882
:108910002030CBB11B78BBB9B0B90D4B0D4A1A61F1
:1089200008225A700C4B4FF48072C3F88020BFF3BA
:108930004F8FBFF36F8FE02283F8082303F5406366
:10894000064A9B681A667047162070479C2D0000E7
:10895000601900200080004000E100E03D080000B8
:10896000052830B55EDC314B53F82040002C59D03F
:108970002278002A56D12E4B994253D8B3FBF1F1FD
:10898000B1F5007F4ED82369002B4BD001290FD0C1
:108990000123184600FA03F58D42DAB23DD3013BBC
:1089A00000FA03F3CB1A691A8B4201D2013AD2B210
:1089B0001F4B01251341E3602570EFF3108072B661
:1089C0004FF08043D3F80C1401F00111B1F1011FF5
:1089D00007D00021C3F800111D60D3F80011002951
:1089E000FBD02169012300254B60CB60C1F8045501
:1089F0000325C1F80855C1F810250B6094F9012032
:108A00006178002A06DB01F01F018B4052090949F9
:108A100041F8223040B962B630BD01330A2BB9D1DA
:108A20001A46C5E71620F7E70020F5E79C2D000061
:108A30000024F40000E100E008B500F072F8044BF7
:108A40004FF000425A60BFF36F8FFFF79BFB00BFF0
:108A500000ED00E008B5044B5A685A68DA6A9A6A71
:108A60009A6B5B6BFFF78EFB00ED00E00146002088
:108A7000FFF776BF10B5D0E9043104469847E37E8E
:108A800020B113F0080F08BF002010BD43F0010310
:108A9000E376FAE72DE9F04143769846069B0361B9
:108AA0000025079BC161027643611746458310226A
:108AB0002946044600F0DFF8164B1E681A4666B9D0
:108AC000224642F8206FC3E90042134B1868F0B108
:108AD0002046BDE8F041FFF7CDBF3046037E9F4200
:108AE00010D302D1437E43450CD8036A05463BB9F7
:108AF0002B6A236213B904F1200353602C62E4E76C
:108B00001846EBE7002DF3D126621460DDE7BDE8DF
:108B1000F08100BF30010020D0190020012000F0BA
:108B20000DB8EFF3108072B600F00100704700003E
:108B3000014B1868704700BF2C1A0020024A1368C6
:108B400003441360704700BF2C1A002080F309888B
:108B50002B480078023080F31488BFF36F8F704782
:108B600080E8F00F7047EFF30980816911F8021C6B
:108B700051B990E80F1010B5E047BDE81040EFF391
:108B8000098C8CE80700704710B51E4A12689142A4
:108B900009D81D4C54F8214090E80F10A047EFF37E
:108BA000098C8CE80F00BDE810407047174B1A681D
:108BB000174B1968914208BF7047EFF3098C2CE9F5
:108BC000F00FC1F800C01A60D2F800C0BCE8F00F86
:108BD0008CF30988704710B5FFF7A0FFBDE810407F
:108BE00070471EF0040F0CBFEFF30883EFF3098307
:108BF0002DE9F84F6846FFF72DFFBDE8F84F7047A5
:108C00003801002000000000FCFFFFFFE80000200A
:108C1000241A002070B44FF0000522F0030605E08E
:108C200043594C59A34204D105F10405B542F7D18B
:108C30000DE01BBA24BA1B1B8CBF01234FF0FF337E
:108C400009E0435D4C5D1B1B05D105F10105954213
:108C5000F7D14FF00003184670BC704701E08B5805
:108C60008350043AFBD502F1040201E08B5C83548B
:108C7000013AFBD5704730B50546C9B241EA01213A
:108C800041EA0141AB1803242340D31A0BD401E07D
:108C9000013AA9549A42FBD100E0A950043AFCD50C
:108CA000043200E0A954013AFCD530BD03461A460F
:108CB000013311780029FAD1101A70470A4A126854
:108CC00030B503462AB10949096800200C248142C5
:108CD00002DC4FF0FF3030BD04FB00F5555D9D42D6
:108CE000F9D00130F3E700BF301A0020341A002019
:108CF00038B50A4B1D680C464DB1FFF7DFFF431C2A
:108D000008D00C2303FB00502060002038BD6FF01A
:108D10000600FBE76FF00300F8E700BF301A002001
:108D20002DE9FF475FFA80F90F46484601A914462E
:108D3000FFF7DEFF054648B9019B38605878FFF71A
:108D4000B1FBA8460646F368434503DC284604B059
:108D5000BDE8F087336802AAD3F80CA0414603AB04
:108D60003046D0470198029A436893420FD88168F1
:108D70000B449A420BD23CB184F800904378637064
:108D8000039B6260A3600C343B6801333B6008F1D5
:108D90000108D8E730B485688D421C4608D30C44DE
:108DA000A54205D344684078214430BC01F018BD89
:108DB0004FF0FF3030BC704730B485688D421C46A0
:108DC00008D30C44A54205D344684078214430BC04
:108DD00001F02ABD4FF0FF3030BC704710B48468FA
:108DE0008C42134608D30B449C4205D3436810BC05
:108DF0004078194401F04ABD4FF0FF3010BC704775
:108E0000407801F0DDBC08B5407801F0E1FC08BD18
:108E100010B444684078214410BC01F0AEBD00009D
:108E20002DE9F04788B001F0B9FC58B1FFF7C2F95D
:108E300000B101BE0023404A0093146819461A4647
:108E40001846A0473D4F3E4B3E4D3B6006232B60EE
:108E500000F054F903A83C4E00F074F9B9463446CA
:108E60004FF000083746022103A800F035F910F151
:108E70000F0F1BD0B8B905A903A800F038F990B9B5
:108E80009DF8143023709DF815306370DDF81630AE
:108E9000636008F10108DDF81A30A360B8F10A0F29
:108EA00004F10C04DFD108B0BDE8F087B8F1000F81
:108EB000F9D0234CC9F80070C5F800804FF00C09B8
:108EC0004FF000082078FFF7F9FE013028D12B6819
:108ED000092B2DDDFFF76EF900B101BE00231A4604
:108EE00019461846FFF7A8FD6078517888420AD1E4
:108EF000D2E9010AD4F804E0A1687144814202D9A0
:108F0000504486450CD30CF1010C0C326345EBDC6C
:108F100094E8070009FB037C8CE8070001332B6011
:108F200008F10108B8F1060F04F10C04CAD1BAE740
:108F300032464FF0000CE9E7F0000020301A002024
:108F4000E82D0000341A00203C010020F0B5254C2B
:108F5000254A266885B0054600230C219E420ADC7E
:108F6000022E3CD001A92846FFF7C2FE50B16FF097
:108F7000040005B0F0BD01FB03F0805CA8422BD0DB
:108F80000133EBE70198816808230DEB03020839F0
:108F9000FFF700FF0028EAD1144B039A9A4215D13B
:108FA0009DF80A30022B14D1019BBDF808109B6874
:108FB00099420BD80C4F0C2272435B1ABE18C6E9BB
:108FC00001312368BD5401332360D2E76FF00800FC
:108FD000CFE76FF00B00CCE76FF00A00C9E74FF066
:108FE000FF30C6E7D0010020B801002069A2B23BE3
:108FF00073B5174B16461B6882789A4204460D4695
:1090000009DBFFF7D7F800B101BE00231A46194665
:109010001846FFF711FD0C2353430E4A01A9D05CFB
:10902000FFF766FE014670B932462846FFF723FE79
:10903000637861680198B342A8BF33462A4602317B
:10904000FFF7A8FE08B16FF0040002B070BD00BFCA
:10905000D0010020B80100202DE9F3411C4D1D4E28
:1090600004462F46A2782B689A4204DB6FF0010079
:1090700002B0BDE8F0810C23534301A9F05C06EB7C
:109080000308FFF735FEF8B963687BB9D8F8041018
:10909000019861608368083B8B420FD8A3783A68D7
:1090A0000133934206DB6FF00E00E1E76178023393
:1090B0001944EDE700226260A370D3E70223224641
:1090C000FFF768FE0028D3D06FF00400D0E700BFA0
:1090D000D0010020B801002038B504460D462046D6
:1090E000FFF7BAFF10B92378AB42F8D138BD0A2296
:1090F000FFF77EBF0122FFF77BBF00001FB5104BBB
:109100001878C8B901221A70FFF720FFA0B902A889
:1091100000F018F8042102A8FFF7DEFF60B901A9EA
:1091200002A8FFF7E7FF38B99DF80400FFF70EFF2C
:109130000028EFD00B30EDD005B05DF804FB00BF88
:10914000B401002010B50446FFF7D8FF0023C4E99E
:10915000003310BD08B5FFF76FFCF7B505460020DA
:109160000C46174601F07BF86946C0B2FFF7C0FD18
:1091700018B10125284603B0F0BD2C2101FB045491
:1091800000982189E368CE1804230DEB03023146D1
:10919000FFF700FE05460028EBD1BDF804206489E6
:1091A00046F608139A421AD1BDF806309C4201D007
:1091B0000325DFE7042300980DEB0302A119FFF755
:1091C000E9FD0028D5D1BDF8042046F607139A42E0
:1091D000EED1BDF80610214431443960CAE7002CB5
:1091E000F1D0E5E7F8B513460F46164600210246D2
:1091F000054600F027FB044650B9334605F12C0222
:109200000121284600F01EFB10B1002F18BF0446B4
:109210002046F8BD30B5012189B00446002001F098
:109220001EF806A9C0B2FFF763FD002842D1012154
:1092300001F015F807A9C0B204F12C05FFF758FD9D
:1092400028B1E16B11F0100110D0012030E0079837
:10925000FFF7D9FD04F12B03C0B204F12F029A42AB
:10926000F3D013F8011F8142F9D0EAE7E26A134B09
:109270009A4205D0069800218268FFF7AFFDE4E727
:10928000A08EA26BC3439A42F4D8069B024498680E
:109290008242EFD24FF480720192094A0092CDE9E6
:1092A000031102912A46084600F0C0FE0028E1D1D1
:1092B00009B030BD4FF0FF30FAE700BF3DB8F3967C
:1092C0004018002073B5426A0446802501A9012098
:1092D0000195FFF725FD019BA36218B101252846E2
:1092E00002B070BD226D019501A90220FFF718FDA3
:1092F000019B63650028F1D1E26D019501A903206E
:10930000FFF70EFD019B236605460028E6D1206A83
:10931000FFF776FD0646A06DFFF772FDB0422CBF49
:10932000A066A666DBE70123036003F10123436027
:109330000023C0E9023370474379012B07D103684A
:10934000012B04D10079431E584258417047002038
:109350007047000073B50D46044600212846CDE94C
:109360000011FFF7E9FF58B31A4E2268B2420ED13E
:1093700001AA2046FFF7F1FE48B1FEF71BFF00B13E
:1093800001BE00231A4619461846FFF755FBE36A4B
:10939000B34206D16A4601212046FFF7DEFE0028CF
:1093A000EBD1DDE90032934288BF0193019BAB60B2
:1093B0002046019A294600F047FB002002B070BD0C
:1093C00005F1080100F06EFD0028D6D1AB680193CD
:1093D000EEE700BF3DB8F3967FB58B79002B0646CC
:1093E0000D4614BF0320012001A9FFF781FC18BB23
:1093F000019800F0CBFCB16E0446284600F087FAD5
:1094000004440198FFF7FCFC06460198FFF7FBFCBB
:109410000822C1B20DEB0200FFF72DFC2B798DF86D
:1094200008300198334602AA2146FFF7C5FC0038F0
:1094300018BF012004B070BD0120FBE7FFF7CEBCD0
:109440002DE9F04B099FDFF84CB00E469046994647
:109450000024BC4201D300200EE03D1BB5F5806F17
:1094600028BF4FF480650B4A2B4604EB09013046B8
:10947000FFF790FC10B10120BDE8F08B08992B4656
:109480005A4661184046FFF797FC0028F3D12C4458
:10949000DFE700BF40020020F0B56C22044685B033
:1094A0000F460021FFF7E7FB744B6362744B2365A3
:1094B0000021744BE365084600F0D1FE04F1200161
:1094C000C0B2FFF715FC78B9012100F0C8FE04F125
:1094D0004C01C0B2FFF70CFC30B904F15801032075
:1094E000FFF706FC054648B1FEF764FE00B101BE79
:1094F00000231A4619461846FFF79EFA2046FFF742
:10950000E1FE024618B1012384F864305AE00146B6
:109510002046FFF767FE0028F5D1204600F002FA4A
:109520000028F0D06846FFF7FEFE6946204600F0AE
:1095300024F90028E7D16846FFF7FEFE68BB6946BC
:109540002046FFF707FF0028CED19DF8073084F8AA
:109550006430033B012B06D8002000F05BF910B10A
:10956000FF2384F864309DF80730023B022B06D8B5
:10957000002000F041F910B1FF2384F8643094F822
:109580006430FF2BB0D00028AED101466A46204699
:10959000FFF728FE0028B6D0A6E79DF80730012B7C
:1095A0001FD1284600F0FEFC831E022B064607D87A
:1095B0002046FFF72FFE012811D0002818BF0526EE
:1095C00084F8646094F864308DF80730042B11D867
:1095D000012B17D830D0FF2384F864302CE00646E6
:1095E000EEE72046FFF716FE08B105238CE79DF84D
:1095F000073089E7052BEED1002000F00BF9054676
:10960000D0B1E8E769462046FFF7A4FE05460028EA
:109610007FF46AAF94F86430DA1E012A0AD800F0A9
:10962000F9F818B9002000F0E7F828B1FF2384F812
:10963000643059E7022BF5D094F86430FF2B3FF4E7
:1096400053AF012B06D06A4600212046FFF7CAFD22
:10965000054670B922680C4B9A420DD110220021A8
:109660006846FFF708FB236A5A783A715B68BB606B
:109670003C60284605B0F0BD0325FAE7400600200F
:1096800040120020400C00203DB8F39601460148EE
:10969000FFF702BFD40100202DE9F0470E4600215C
:1096A0000746084600F0DBFD01210446002000F0DB
:1096B000D6FD3378A34224D083422BD101242C231E
:1096C00003FB0474B86EA56A00F050FB013D8046B0
:1096D00000274FF00C0A636A0AFB0532D2E9011930
:1096E0005B684A46C91A3046FFF7A8FE58B1FEF734
:1096F00061FD00B101BE00231A4619461846FFF766
:109700009BF90024DBE74F44B84505F1FF35E2D86B
:10971000BDE8F0870120FBE737B50C46022069461B
:10972000154600F0AFFB024648B1FEF743FD00B11D
:1097300001BE00231A4619461846FFF77DF9E9795C
:10974000012904D0204600F003FC0028EDD19DF84B
:109750000330012B04D1204600F0EEFB0028E4D1B9
:10976000A968204600F011FC0028DED1204600F058
:10977000C9FB0028D9D103B030BD73B50D460646EC
:1097800000F026F901280446E8600CD002282FD00A
:1097900058B3FEF70FFD00B101BE00231A4619466B
:1097A0001846FFF749F9032001A9FFF7A1FA08BB02
:1097B00001982A46314600F05CF80446A8B90198A1
:1097C00000F0FBFA012301460DF103020198FFF7B7
:1097D0001FFB012808BF8DF803009DF8033008BF68
:1097E000204603F00F03EB710446204602B070BD23
:1097F0000120D9E70124F8E707B5012001A9FFF707
:1098000077FA28B9019800F08BFB03B05DF804FBF0
:109810000120FAE71FB5012001A9FFF769FA18B185
:10982000012005B05DF804FB019802A900F0C8FA18
:109830000028F5D19DF80B30032BF2D1019800F0F0
:109840007BFBEEE713B50020144600F008FD01A9EC
:10985000C0B2FFF74DFA014648B9019820232246CD
:10986000FFF798FA003818BF012002B010BD0120A0
:10987000FBE72DE9F74F81468B46164600F086FA46
:1098800049468246002000F076FAB0F100083ADB43
:1098900000273C463D46474512D16DB1002C08BF1C
:1098A0003C460323B4FBF3F35A1C03EB4303E31AD4
:1098B0000133326033710025284603B0BDE8F08FD4
:1098C000DBF8681001230DF1070201FB07A14846F0
:1098D000FFF79EFA002818DB012805D115B1002CEE
:1098E00008BF3C460137D6E75DB1002CFAD0FEF741
:1098F00061FC00B101BE00231A4619461846FFF765
:109900009BF80125EEE70725D6E70125D4E710B53A
:1099100002790368013A01EB4104013B514304FB26
:10992000031010BD2DE9F047D0F82880B8F1800F62
:109930004BD8D0F854E0BEF1800F46D8836DD3F8F1
:1099400008A000231C461D4699461A461E46194685
:109950004FF00C0C45450BD3744509D3454534D124
:10996000744532D1A2EB090358425841BDE8F08753
:10997000B14215D1476A0CFB05770135BF68394400
:10998000076D0CFB04770134BF683E44B142E1D15E
:1099900051450A44894418D800231E461946D9E780
:1099A00009D2476A0CFB0577022BBF6839440CD0FB
:1099B00001350123EAE7076D0CFB0477012BBF6833
:1099C0003E4402D001340223E0E70020CEE700004D
:1099D000F0B585B002A9012000F054FA48B1FEF7B5
:1099E000E9FB00B101BE00231A4619461846FFF7ED
:1099F00023F86946032000F045FA04460028EED11A
:109A0000104D06462F469DF80810287800F0A0F962
:109A100090B19DF80010687800F09AF960B1AB78C9
:109A2000042B03D09DF80A209A4205D107EB860645
:109A3000F478204605B0F0BD0136042E05F104058A
:109A4000E1D1F6E7B42D00002DE9F04F00230C46DC
:109A500089B0054619461F460C26914201D399420A
:109A600004D2686A06FB070080680144934202D36F
:109A7000994240F23B81286D06FB070091428068C5
:109A8000034403D39A4201D8994201D00137E4E755
:109A90004FF0000B4FF00C0AAB6D6A6A996802F147
:109AA0000800002399460AFB07F3C3584B44994228
:109AB00002D3013FF6D299462368013B5B4500F291
:109AC0000D8107FB0AA31344A86E5E685368A6EBDA
:109AD000030800F04BF9AB6A696A013B0AFB031308
:109AE00049685B6808EB09025B1A9A4223688CBFDD
:109AF000A9EB00064E46012B13D1B6EB090318BFA4
:109B00000123A37103A90120FFF7F2F858B1FEF772
:109B100051FB00B101BE00231A4619461846FEF754
:109B20008BFF0023EDE704A90220FFF7E1F80028EE
:109B3000EDD105A90320FFF7DBF801460028E6D1A7
:109B40002379012B40F0C58005988268FFF776FCE9
:109B50000028DCD12368012B1CD105992246284618
:109B6000FFF7DAFD0028D2D1A3799BB903992846E3
:109B7000FFF792FD0028CAD1039922462846FFF735
:109B8000CBFD0028C3D1059800218268FFF756FC61
:109B90000028BCD100230093DDE90412019643465E
:109BA0002846FFF74DFC0028B1D121462846FFF793
:109BB00013FC022323710028A9D104984A46414688
:109BC000FFF73CFC0028A2D1CDE90086DDE90312B5
:109BD00043462846FFF734FC002898D12368012B20
:109BE00007D1A3792BB904992846FFF755FD002822
:109BF0008DD121462846FFF7EFFB03232371002870
:109C000085D103984A464146FFF718FC03460028D1
:109C10007FF47DAFCDE90086039A05992846FFF7CA
:109C20000FFC00287FF473AFA379002B39D005987F
:109C300000F0ACF8AA6E0599520046440346019222
:109C40000096039A2846FFF7FBFB00287FF45FAFDE
:109C500006A9032000F016F900287FF458AF9DF8FC
:109C60001B30012B05D1039800F066F900287FF422
:109C70004EAF9DF81910012906D00398002200F07C
:109C800067F900287FF443AFA168039800F07DF9DD
:109C900000287FF43CAF039800F034F900287FF4EB
:109CA00036AF0023A679A37121462846FFF794FB1F
:109CB0002368013323604FF001032371014600281C
:109CC0007FF425AF56B105984A46FFF7B7FB28B198
:109CD0001DE7022B3FF471AF032B92D07B1C0BF1DD
:109CE000010B7FF4D9AE09B0BDE8F08F9142BFF40B
:109CF000CBAECBE62DE9F74306460F4690461D4610
:109D0000FFF77EF8082804461FD83046FFF77BF897
:109D1000AC4238BF2C468146E4B22A4641466846EA
:109D2000FEF79CFF621B5FFA89F10DEB0500FEF761
:109D3000A2FF23466A4639463046FFF73DF8003811
:109D400018BF012003B0BDE8F0834FF0FF30F9E702
:109D5000042809D0052803D1481E18BF01207047E8
:109D6000431A584258417047012070474FF4C0735E
:109D70005843303070470878032806D0013801284E
:109D80008CBF4FF0FF304FF4C070704710B50446E1
:109D9000FFF736F84FF4C0734343A068303398425E
:109DA00009D2FEF707FA00B101BE00231A46194690
:109DB0001846FEF741FEC01A10BD8068283870476B
:109DC00030B50C46816887B0102302AA10390546C9
:109DD000FFF71EF8002802DA012007B030BD012885
:109DE00037D103232370A96801230DF10702283915
:109DF0002846FFF70DF80028EEDB9DF80730012814
:109E000003F00F024FEA13136270237101D0042A8A
:109E100003D90123637000232371A9680123A21CC5
:109E200020392846FEF7F4FF0028D5DB01281AD197
:109E30000323A370A9680123E21C18392846FEF702
:109E4000E7FF0028C8DB012813D10323E3700020BB
:109E5000C3E70B49102202A8FEF7DCFE002814BF5E
:109E600002230123BEE7A378012B0CBF01230223A9
:109E7000DFE7E378012B0CBF01230223E6E700BFF5
:109E8000C42D000013B50C46C0B201A9FEF730FF87
:109E900028B901982146FFF793FF02B010BD0120B9
:109EA000FBE70000F0B587B040F20313144FADF8A4
:109EB00000300C466E46002516F8010B01A9FEF78E
:109EC00017FF80B901988168102302AA1039FEF7A4
:109ED00061FF40B91022394602A8FEF79BFE30B15F
:109EE0001DB14FF0FF3007B0F0BD0125E4E7019848
:109EF0008168042322463039FEF74CFFF3E700BFA8
:109F0000C42D00008168054A08B510391023FEF7FA
:109F100053FF003818BF012008BD00BFC42D00004A
:109F200007B58168012301AA20398DF80430FFF7B5
:109F3000E1FE03B05DF804FB07B58168012301AAC7
:109F400018398DF80430FFF7D5FE03B05DF804FB37
:109F50000E2A07B509D9FEF72DF900B101BE00237D
:109F60001A4619461846FEF767FD0E29F3D841EA4E
:109F700002118DF80710816801230DF107022839BD
:109F8000FFF7B8FE03B05DF804FB07B501918168E7
:109F900004230DEB03023039FFF7ACFE03B05DF88C
:109FA00004FB00002DE9F04385B069460120FFF76E
:109FB00069FF58BB02A90220FFF764FF024628BBD5
:109FC0009DF800509DF808609DF803709DF80B8087
:109FD0009DF80290144C20782946FFF7B9FEC8B1CD
:109FE00060783146FFF7B4FEA0B1A378042B01D00E
:109FF000BB420FD1E378042B01D043450AD123792A
:10A00000042B05D16079831E022B09D9FF2007E0BC
:10A010004B45F7D00132032A04F10604DBD10120BD
:10A0200005B0BDE8F08300BFD42D00002DE9F04F4E
:10A03000AFB0DDE93A4613AD2846DDF8E0B017468B
:10A04000994600F014F90021284600F015F934B1C2
:10A05000002E04DD32462146284600F009FA7B89AD
:10A06000B7F808809844FB684FF0000A9844D04540
:10A070002AD80BA9284600F038FA3C9B53B10BAA0A
:10A080001E46134603CBAB42306071601A4606F1A0
:10A090000806F6D1002300934A464FF6FF7339466F
:10A0A00005A800F045F8044650B90DF10E0303AAC7
:10A0B00004A905A800F088F800281CDA4FF0FF3446
:10A0C00020462FB0BDE8F08F399AA8EB0A039A42D8
:10A0D00028BF1A461346164651465A464846FEF7CA
:10A0E00059FE04460028EBD132465946284600F076
:10A0F000BFF9B244BBE719D1BDF80E30102BD4D153
:10A10000BDF80C60202ED9D1049933462A46484622
:10A11000FEF740FE04460028D2D1324629460BA85D
:10A12000FEF778FD01240028BFD0C7E7013CC7E750
:10A130002DE9F7430E4617469946044628B94FF0D5
:10A14000FF38404603B0BDE8F0830029F7D0002A6D
:10A15000F5D0CB680D891D4404230DEB030229467D
:10A160003846FEF717FE80460028E8D1BDF80410F7
:10A17000738946F60812914223D1BDF80610994220
:10A18000DDD104230DEB030229443846FEF702FE1D
:10A190000028D4D1BDF8042046F607139A42CED148
:10A1A0009DF82830A3727389BDF80620A4F80890A2
:10A1B0002B44E36004351344C4E9006763612561FF
:10A1C000BFE7002BE6D0BAE72DE9F7430F469046EC
:10A1D0001E46044620B94FF0FF3003B0BDE8F083BF
:10A1E0000368002BF7D04368002BF4D04FF6FF79BB
:10A1F000D4E904239A4216D223685B8923B1E36829
:10A20000934204BF043323610423216960680DEB8A
:10A210000302FEF7BFFD0028DDD1A37A256923B133
:10A22000E368AB4201D80120D7E72189BDF80630A9
:10A23000494503F1040203D0BDF804C08C450BD19D
:10A2400016B1BDF80410318004353D60A8F8003027
:10A25000236913442361C0E715442561C8E721B190
:10A26000012914BFFF2002207047012070476C2293
:10A270000021FEF700BD00000023C0E90033C1B992
:10A28000194A1A4BDFF88CC0C0E90223184B194A4F
:10A29000C0E904C3184BC0E90623184B036203F15D
:10A2A0007453A3F52303A3F692434362816600200F
:10A2B0007047134B134ADFF860C0C0E9022303F173
:10A2C000794303F5740303F5016303610E4BC0E9A1
:10A2D00005C303F1D14303F5C01303F51E63C36146
:10A2E0000A4B03620A4BE0E767E6096A85AE67BB83
:10A2F0003AF54FA57F520E518C68059BABD9831F51
:10A3000007D57C36D89E05C1310BC0FFA78FF964F5
:10A31000A44FFABE72F36E3C39590EF72DE9F04F97
:10A32000D1B000F10803019300F1280308AA0693B5
:10A33000019B104653F8044B40F8044B069CA34283
:10A34000F8D1D3690493D2E9053E0293936803934D
:10A35000D2E9004CD36805931569444B079310AEBE
:10A360004FF00009B9F10F0F68D84B7891F800A0B1
:10A3700091F802801B0443EA0A6391F803A043EAC0
:10A380000A0343EA0823029F46F8043B4FEAF52AF2
:10A390008AEAB51A8AEA75608EEA070A0AEA050AA5
:10A3A000079F8AEA0E0A824457F8040B07978244F3
:10A3B0000498039FCDF810E0534403440598059793
:10A3C0001844824644EA0C084FEA743080EAB4002C
:10A3D00008EA070804EA0C0B80EAB45048EA0B08C4
:10A3E00009F101098044B9F1400F434401F104012E
:10A3F0001BD10299CDF83CE0CDE90D51CDE90834EF
:10A40000CDF830A0CDF828C00B97019B52F8041B63
:10A410001B680B44019941F8043B069B01918B4258
:10A42000F3D1002051B0BDE8F08FDDF808E0CDF8A1
:10A430000CC00295A44655461C4693E756F8083CC6
:10A4400056F83C0C56F8407C4FEAF34888EA7348CB
:10A4500088EA932856F81C3C4FEAB04B3B448BEA01
:10A46000F01B98448BEAD00343448CE7302E000065
:10A470002DE9F84305460E46144612B90020BDE802
:10A48000F883036803F03F07D318036022BF4368D3
:10A4900001334360A7B1C7F140094A4510D300F129
:10A4A00028084A4608EB0700FEF7D8FB4146284635
:10A4B000FFF734FF0028E2D13C444E44403C0746BD
:10A4C000264405E02846FFF729FF0028D7D1403C65
:10A4D0003F2CA6EB0401F5D8002CCFD005F12800C5
:10A4E00022463844FEF7BAFBC8E7036803F03F038F
:10A4F0005A1C034470B5382A0D4600F128064FF067
:10A500008001044683F8281006EB020061D8C2F1EE
:10A5100038020021FEF7AFFBD4E900315A0F42EABE
:10A52000C102DB0012BA1BBA2266636631462046BE
:10A53000FFF7F4FE00284BD1E37A2B7063896B7030
:10A54000A3681B0AAB70A368EB70E37B2B71E389F4
:10A550006B71E3681B0AAB71E368EB71E37C2B72F0
:10A56000638A6B7223691B0AAB722369EB72E37D0A
:10A570002B73E38A6B7363691B0AAB736369EB73B9
:10A58000E37E2B74638B6B74A3691B0AAB74A369A2
:10A59000EB74E37F2B75E38B6B75E3691B0AAB757B
:10A5A000E369EB7594F823302B76638C6B76236A22
:10A5B0001B0AAB76236AEB76A36E4BB994F827306F
:10A5C0002B77E38C6B77636A1B0AAB77636AEB7755
:10A5D00070BD0021C2F14002FEF74DFB314620461E
:10A5E000FFF79CFE0028F3D101463822304691E760
:10A5F00013B590F83730846B019390F836300093A0
:10A6000090F8353090F83420016B601E00F0CCFAE1
:10A61000002818BF022002B010BD806B08B50138B9
:10A6200000F092FB002818BF022008BD37B5054690
:10A63000806B144648B9FDF7BDFD00B101BE002393
:10A640001A4619461846FEF7F7F92AB3EB7E9B0720
:10A6500025D4137985F83430D37985F83730937958
:10A6600085F8363013682B63537985F83530536994
:10A670000093D2E90332A168013800F0FBF958B920
:10A68000E379A86B0193A379009322796379216818
:10A69000013800F089FA00B1022003B030BD0B2070
:10A6A000FBE708B5FDF786FD00B101BE00231A46A1
:10A6B00019461846FEF7C0F9806B08B508B9FFF7D0
:10A6C000F0FFBDE80840013800F026BA806B08B5FD
:10A6D00008B9FFF7E6FFBDE80840013800F000BA0E
:10A6E000806B08B508B9FFF7DCFFBDE8084001380A
:10A6F00000F0D2B970B50C4605461646FEF718FABA
:10A70000241A002C05DC26B1A86B013800F01CFBD4
:10A7100000B1022070BD000070B5C569044628462E
:10A720000E46FEF7C3FA054415F8013CA3F13000CC
:10A73000092814D82F3BA3630A4B23600A4BE3601C
:10A740000A4B63600A4BA3600A4B63620A4BA36225
:10A750000A4BE362314600F007FA002070BD022088
:10A76000FCE700BF0D260000FB250000D5260000F9
:10A77000D1250000C1260000AD260000992600006A
:10A7800043688B4207D8826813448B4234BF6FF012
:10A790000100002070476FF00100704738B50024B9
:10A7A0002546E0B2FDF77EFE40B103685B6998473D
:10A7B000002818BF6FF004050134F2E7284638BDC1
:10A7C00008B5FDF76FFE08B1007C08BD0120FCE76D
:10A7D00008B5FDF767FE08B1007D08BD0120FCE764
:10A7E0002DE9F0410D4617461E46FDF75BFE044677
:10A7F000B0B12946FFF7C4FF90B9A9192046FFF769
:10A80000BFFF68B923683A46D3F80080294633462B
:10A810002046C047002818BF6FF00400BDE8F08153
:10A820006FF00100FAE700002DE9F04105460E4601
:10A8300090461F46FDF736FE0446F0B13146FFF75D
:10A840009FFFD0B9F1192046FFF79AFFA8B9EB088E
:10A850000D4AD05C05F0070540FA05F5EB070FD46B
:10A86000236842465D6831463B462046A84700289B
:10A8700018BF6FF00400BDE8F0816FF00100FAE747
:10A880006FF00600F7E700BF401900202DE9F743FD
:10A8900005460F469046FDF705FE064600284FD0B8
:10A8A0003946FFF76DFF00284AD107EB08094946F2
:10A8B0003046FFF765FF002842D1EB08224AD45CFE
:10A8C00005F007052C4114F0010436D1B94537D9FC
:10A8D00033689B697BB342463946304698472046E9
:10A8E00003B0BDE8F083DDE900130B449F4217D3AA
:10A8F0000135F368AB42F2DD33686A46D3F80C8069
:10A90000294601AB3046C0470028ECD0FDF752FC89
:10A9100000B101BE00231A4619461846FEF78CF80E
:10A920008945E5D9336830469B6898470028DFD0D1
:10A930006FF00404D3E72546DBE76FF00604CEE7AB
:10A940006FF00104CBE700BF40190020F8B507689D
:10A950003F68064614461D46B84758B92246254466
:10A96000954201D1012004E012F8013B317D99426A
:10A97000F6D0F8BD6FF00400FBE72DE9F0410D467D
:10A9800017461E46FDF78EFD0446E8B12946FFF73F
:10A99000F7FEC8B9A9192046FFF7F2FEA0B923684F
:10A9A000D3F810803A46334629462046B8F1000FC6
:10A9B00006D0C0470028B8BF6FF00400BDE8F081A2
:10A9C000BDE8F041FFF7C2BF6FF00100F6E70000FD
:10A9D00070B5074D0024AE1E3369B0699847002852
:10A9E00004DB0134082C05F8010BF5D1204670BDBD
:10A9F0004619002038B51C4CD4F820316BB1002327
:10AA0000C4F82031FFF7E4FF00281CDD174BC4F821
:10AA100044350123C4F84805A360134DD5F810311F
:10AA200083B1134C0023C5F810316178E368A06945
:10AA300098470028B7BF2378012343F0020323700F
:10AA4000A8BF2B6038BD0A4C63690BB1A069984759
:10AA5000054B4FF48072C3F808230122DA60237893
:10AA60006FF382032370D8E70020004046190020CE
:10AA70004419002030B548B9064C2578ED0705D4B7
:10AA8000C4E90331039B6261A36130BD4FF0FF3025
:10AA9000FBE700BF4419002038B5E0B9EFF310859B
:10AAA00072B60D4C23785B0713D4FFF791FF002893
:10AAB0000FDD0A4B4FF48072C3F80423A21CC3F8C5
:10AAC00044250122C3F848059A60237843F0040323
:10AAD000237005B962B638BD44190020002000403B
:10AAE00038B5A0B90A4C23789B0710D5EFF3108531
:10AAF00072B6E3686178A069984730B9237860F34B
:10AB000041032370034B01221A6005B962B638BDB8
:10AB1000441900200020004082B08DF80710E8B9E9
:10AB20000F4B1B78DA0719D513F0040F0D4B03D028
:10AB3000D3F82021002AFBD00022C3F820210DF1F8
:10AB40000702C3F844250122C3F848259A60054B43
:10AB5000D3F82021002AFBD00122DA6002B070472E
:10AB60004419002000200040A8B90C4B0C4A9B68F7
:10AB70009A640C4B91F90020C3F80C2591F901203F
:10AB8000C3F8142591F90220C3F8082591F9032090
:10AB9000C3F8102570474FF0FF30704700ED00E01C
:10ABA000D52900000020004070B59DF81050002805
:10ABB00039D1594C2678F60735D4082A33D1012BE0
:10ABC00031D1012D2FD09DF81430022D14BF002556
:10ABD0000E25012B14D1514BD3F80825013245F035
:10ABE000010503D0D3F81035013309D1FDF7E2FA9E
:10ABF00000B101BE00231A4619461846FDF71CFF96
:10AC00004DF6C023994265D020DCB1F5615F64D078
:10AC100011DCB1F5965F62D008DCB1F5966F60D0BB
:10AC2000B1F5166F60D04FF0FF3052E0B1F5165F0E
:10AC3000F9D13B4B2BE0B1F5E14F58D0B1F5164FB0
:10AC400057D0B1F5964FEED1364B20E0364B9942B6
:10AC500052D011DCB1F5E13F51D007DCB1F5614FC5
:10AC600050D0B1F5963FDED1304B10E0B1F5613FE9
:10AC7000D9D14FF06C730AE0B1F5612F45D02C4B60
:10AC8000994245D0B1F5E12FCDD14FF0E863234A89
:10AC90000021C2F800154FF0FF31C2F80813C2F8C6
:10ACA0002435244BC2F86C55042119600823C2F8DE
:10ACB00000351023C2F804331F4BC2F8343501238A
:10ACC000C2F838351360237823F0070343F00103FB
:10ACD000237070BD4FF46503D9E7184BD7E7184BC5
:10ACE000D5E74FF49E23D2E74FF41D23CFE7154B52
:10ACF000CDE74FF41D03CAE74FF08063C7E74FF07D
:10AD0000EB73C4E74FF46B03C1E74FF07063BEE72A
:10AD10004FF08053BBE700BF4419002000200040E3
:10AD20000050270000A04E0090D0030000903A0190
:10AD300040420F0000E100E04519002000F03A0019
:10AD400000B0130000C0750088B90A4B1A7860F390
:10AD500000021A701A78C2F380015207FAD4064B27
:10AD60004FF0FF32C3F80015C3F8082370474FF0C7
:10AD7000FF3070474419002000200040742D00006F
:10AD8000000000000000080080000000010000003A
:10AD9000FF0000000906000049050000F90400005A
:10ADA000170600000000000045050000000000003C
:10ADB0007561727430000B0CFFFF000060190020F9
:10ADC0000000000000000000000000000000000083
:10ADD0000000000001050100010503020401040157
:10ADE0000304030277C295F360D2EF7F3552500F10
:10ADF0002CB6798004010403040204010401040355
:10AE00000103030401040000000000000000000032
:10AE100000400000010000000080000000A00300CE
:10AE2000020000000020040000A003000300000056
:10AE300000C00700001000001000000000400000EB
:10AE4000004000001100000000D0070000300000AA
:10AE5000982F8A4291443771CFFBC0B5A5DBB5E985
:10AE60005BC25639F111F159A4823F92D55E1CABF9
:10AE700098AA07D8015B8312BE853124C37D0C5587
:10AE8000745DBE72FEB1DE80A706DC9B74F19BC1CF
:10AE9000C1699BE48647BEEFC69DC10FCCA10C24BF
:10AEA0006F2CE92DAA84744ADCA9B05CDA88F976A3
:10AEB00052513E986DC631A8C82703B0C77F59BF0D
:10AEC000F30BE0C64791A7D55163CA066729291439
:10AED000850AB72738211B2EFC6D2C4D130D3853D6
:10AEE00054730A65BB0A6A762EC9C281852C729298
:10AEF000A1E8BFA24B661AA8708B4BC2A3516CC7C6
:10AF000019E892D1240699D685350EF470A06A10FE
:10AF100016C1A419086C371E4C774827B5BCB0344D
:10AF2000B30C1C394AAAD84E4FCA9C5BF36F2E68EB
:10AF3000EE828F746F63A5781478C8840802C78C7A
:10AF4000FAFFBE90EB6C50A4F7A3F9BEF27871C67D
:10AF5000A8D1FF7F0100000008DCFF7FB0B0B08007
:10AF600006DCFF7F01000000000000000000000080
:10AF7000000000000090D00300000000E800002066
:10AF80003511000007692800100020006B316008AF
:10AF9000C33D9598F31C7F404654C8B618E1293F3D
:0CAFA000087FE9662ADD8BC040301A5D96
:040000030000800079
:00000001FF
