:1000000000000120B9060000E1060000E306000040
:10001000E5060000E7060000E90600000000000019
:10002000000000000000000000000000EB060000DF
:10003000ED06000000000000EF060000F1060000E1
:10004000F3060000F3060000D10D0000F3060000E7
:10005000F3060000F306000089090000F306000023
:10006000F3060000F3060000F3060000F3060000AC
:10007000F3060000F3060000F3060000F30600009C
:10008000F3060000590A0000F3060000F306000022
:10009000F3060000F3060000F3060000F30600007C
:1000A000F3060000F3060000F3060000F30600006C
:1000B000F3060000F306000000000000000000004E
:1000C000F3060000F3060000F3060000F30600004C
:1000D000F3060000F3060000F30600000000000035
:1000E0000000000000000000000000000000000010
:1000F0000000000000000000000000000000000000
:1001000000000000000000000000000000000000EF
:1001100000000000000000000000000000000000DF
:10040000044B05481B1A062B02D9044B03B11847AD
:10041000704700BF7700002074000020000000003B
:1004200005490648091A891001EBD171491002D01B
:10043000034B03B11847704774000020740000207C
:100440000000000010B5064C237843B9FFF7D8FF31
:10045000044B13B10448AFF300800123237010BD97
:1004600074000020000000002011000008B5084BB7
:100470001BB108490848AFF300800848036813B966
:10048000BDE80840CCE7064B002BF9D09847F7E7CA
:100490000000000078000020201100007000002003
:1004A00000000000154B002B08BF134B9D46A3F521
:1004B000803A00218B460F461348144A121A00F066
:1004C0007FFD0F4B002B00D098470E4B002B00D028
:1004D00098470020002104000D000D48002802D09C
:1004E0000C48AFF3008000F045FD2000290000F02B
:1004F00085FC00F02BFD00BF00000800000001207B
:100500000000000000000000740000202C0100200A
:100510000000000000000000014B01221A7070472B
:10052000900000204FF080430122C3F800290022F0
:10053000C3F81029C3F82029C3F83029C3F840298B
:10054000C3F85029C3F860290222C3F87029704704
:1005500010B50121134C0D2000F094FA01210D205B
:1005600000F0B2FA20464FF4E13100F0F9FA0E49FA
:10057000204600F0E9FA4FF4FA5000F05FFA4FF02D
:1005800080430122C3F87825FFF7CCFF02210F201A
:1005900000F078FA032205490F20BDE8104000F072
:1005A000BDB900BFC8000020FC0F00001905000005
:1005B000064B1B7843B1064B064801221A604FF4E4
:1005C000E1319A6000F0CCBA704700BF9000002083
:1005D00000200040C8000020094B0A48002210B546
:1005E0001A704FF080430124DC6700F0CBFA064B11
:1005F0005C60DC60DC61D3F80025042AFBD010BD10
:1006000090000020C80000200020004010B50446E3
:10061000FFF7E2FF2CB94FF080430122C3F8002519
:1006200002E040BF20BF20BFBDE81040FFF7C0BFC1
:1006300008B51349134800F087FA00210D2000F097
:1006400043FA0021082000F03FFA01210F2208465A
:10065000FFF7DCFF0C4B1B788BB101210D2000F064
:1006600033FA0121082000F02FFA0849054800F06C
:100670006BFA40F6B830BDE8084000F0DFB908BDBD
:1006800026100000C8000020900000203810000054
:1006900008B501210D2000F0F5F900210D2000F032
:1006A00013FA0121082000F0EDF900210820BDE82F
:1006B000084000F009BA00000649074A074B9B1A98
:1006C00003DD043BC858D050FBDC00F04DF8FFF7C9
:1006D000E9FE00002C110000000000207400002042
:1006E000FEE7FEE7FEE7FEE7FEE7FEE7FEE7FEE7E2
:1006F000FEE7FEE70C4B1B78062B10D10B4B1B685B
:100700001A070CD10A4B186800F0F003302B08D000
:1007100000F0E000A0F1400358425841704700202B
:1007200070470120704700BFE00F00F0E40F00F0B9
:10073000E80F00F0094B1B78062B0CD1084B1B6807
:100740001A0708D1074B186800F0F000A0F1300339
:100750005842584170470020704700BFE00F00F03A
:10076000E40F00F0E80F00F008B5FFF7E3FF10B169
:100770004B4B4C4A1A60FFF7BDFF28B14A4B4B4A1E
:100780001B68C3F342331360FFF7D4FF20B1484A1C
:10079000D36823F08073D360FFF7ACFF40B14FF014
:1007A00080430022C3F80C21C3F81021C3F8382578
:1007B000FFF7C0FF10B13F4B03221A60FFF7BAFFEB
:1007C00040B13D4B05221A6001229A6700229A60CF
:1007D0003F225A60394B1B78062B09D1384B1B68D6
:1007E0001B0705D1374B1B6803F0F003502B0ED0CD
:1007F000354AD2F8883043F47003C2F88830BFF32A
:100800004F8FBFF36F8F314B314A1A6008BD4FF0E5
:100810008052304BD2F80414C3F82015D2F80814D3
:10082000C3F82415D2F80C14C3F82815D2F8101404
:10083000C3F82C15D2F81414C3F83015D2F81814D4
:10084000C3F83415D2F81C14C3F84015D2F820149C
:10085000C3F84415D2F82414C3F84815D2F8281464
:10086000C3F84C15D2F82C14C3F85015D2F8301434
:10087000C3F85415D2F83414C3F86015D2F83814FC
:10088000C3F86415D2F83C14C3F86815D2F84014C4
:10089000C3F86C15D2F84424C3F87025A8E700BF4C
:1008A00074C007400DF0ADBA440200103C05004092
:1008B000F0ED00E0A005004010560040E00F00F011
:1008C000E40F00F0E80F00F000ED00E00000002071
:1008D0000090D00300C0004010B520242246002123
:1008E0000A4800F06DFB0A4B4FF0FF321A605A6065
:1008F000084B00221A60084B4022C3F88020C3F83E
:10090000802183F806431A6010BD00BFA4000020B8
:1009100091000020A000002000E100E0F8B5164F93
:100920003B6806460D4614461BB9FFF7D5FF012369
:100930003B601F2E1FD8114B032C53F8263002D0DA
:10094000042C08D0F8BD9B0003F1A043D3F8002786
:1009500042F4403206E09B0003F1A043D3F80027A5
:1009600042F40032C3F80027054B1D60054B4FF0E1
:100970000042C3F80423F8BD9C000020581000007A
:10098000A0000020006000402DE9F7431A4CD4F885
:100990007C31012B0BD1D4F80433002B07DA174B31
:1009A0001B6803B198470023C4F87C3120E0144D44
:1009B000114E144FDFF850800024A94655F8043B2F
:1009C000012B12D1D6F80423A34013420DD0E357D4
:1009D000013303D058F8243003B19847002345F879
:1009E000043CD9F800300193019B0134082CE4D178
:1009F00003B0BDE8F08300BF00600040A00000200D
:100A00000061004091000020A4000020094B1968FB
:100A1000094B30B5D3F804050A060B0A02434FF41C
:100A20007A71A2FB014501FB0355E00B40EA45400A
:100A300030BD00BFC40000200010014038B504469E
:100A400048B1FFF7E3FF054600F01AF8FFF7DEFFB5
:100A5000401B8442F8D838BD074B0022C3F804215C
:100A600082B0D3F80431054A0193019B1368013326
:100A7000DBB2136002B0704700100140C4000020D8
:100A8000704700001F281BD80E4B53F82030032955
:100A900016D8DFE801F0020E060A03F5E073002124
:100AA0000AE003F5E0730C2106E003F5E07304218E
:100AB00002E003F5E07303214FF0A04242F8231057
:100AC000704700BF581000001F280CD8064B53F881
:100AD000200001234FF0A042834011B9C2F80C3529
:100AE0007047C2F808357047581000002DE9F041F2
:100AF00006460D4601EB02080C464445A4EB0507EB
:100B000007D0336814F8011B1B683046984700284B
:100B1000F3D13846BDE8F08170B505460C4608466D
:100B200049B100F055FA2B680246214628465B6819
:100B3000BDE87040184770BD08B50249FFF7ECFFEB
:100B400008BD00BFD810000038B50546FFF7E4FF28
:100B500004462846FFF7F0FF204438BD01207047C7
:100B600003681322DB69184770470369C3F81C1533
:100B7000D3F81C21002AFBD00022C3F81C2101203D
:100B80007047000090F85C305AB2520910B401214D
:100B900020320F4C03F01F0301FA03F344F8223014
:100BA00003695DF8044B0422C3F80823002259604E
:100BB000D960C3F800254FF0FF32C3F80C2514307C
:100BC000C3F81425C3F80825C3F8102500F09EB912
:100BD00000E100E0143000F0ABB9143000F0AEB921
:100BE000143000F097B90000026990F85E3030B51B
:100BF000C2F80C3590F85D30C2F8143590F86130C9
:100C0000012B01BF90F85F40C2F8104590F860409A
:100C1000C2F8084518BF0023B1F5966FC2F86C35CD
:100C20002ED9B1F5166F2ED9B1F5965F2ED9B1F543
:100C3000165F2DD9B1F5615F2CD9B1F5964F2BD93F
:100C4000B1F5E14F2AD9B1F5164F29D9B1F5614F68
:100C500029D9B1F5963F29D9B1F5E13F28D9B1F5A8
:100C6000613F28D9344B994228D9B1F5E12F28D9D1
:100C7000B1F5612F8CBF4FF080534FF0706322E0CD
:100C80004FF49E231FE04FF41D231CE02B4B1AE072
:100C90002B4B18E02B4B16E02B4B14E02B4B12E0A8
:100CA0004FF41D030FE04FF46B030CE0284B0AE0F8
:100CB0004FF0EB7307E04FF06C7304E04FF080638C
:100CC00001E04FF0E863C2F8243500210423C2F8A4
:100CD0000035C2F80811C2F81C11012111609160A1
:100CE000C2F8043390F85C2053B2D2B202F01F0570
:100CF0005C09A9406034174D002B45F8241006DA32
:100D0000154B02F00F02134460221A7606E003F13D
:100D1000604303F56143602283F8002390F85C3060
:100D200001215AB203F01F0301FA03F352090949E2
:100D300041F8223030BD00BF90D0030000B0130056
:100D40000050270000F03A0000A04E0000C07500DF
:100D500000903A0100E100E0FCEC00E02DE9F041F8
:100D60001E464FF47A73002583600E4B456004469F
:100D700040F8143B1746884600F0B2F80A4AC4F817
:100D8000108052F8263084F85D309DF8183084F8D1
:100D90005C7052F8233084F85E3084F8615020464D
:100DA000BDE8F081F0100000581000000369D3F88E
:100DB000082110B504464AB1D3F818151430C9B249
:100DC00000F099F823690022C3F8082110BD000043
:100DD0000148FFF7EBBF00BFC800002007B50B2399
:100DE000009302220C2303490348FFF7B7FF03B027
:100DF0005DF804FB00200040C800002008B500F0AA
:100E000011F8FFF745FC0120FFF718FEFFF7A0FBE4
:100E1000034CFFF70DFC002CFBD0AFF30080F8E78C
:100E2000000000002A4BE02283F811234FF4003227
:100E3000C3F880211A604FF080430122C3F81825BF
:100E40009A6003F588330021C3F808150221C3F81E
:100E50000413C3F844131A604FF01023D3F8002290
:100E6000002A03DBD3F80432002B2FDA194B0122BE
:100E7000C3F80425D3F80024002AFBD04FF0102239
:100E80001521C2F80012D3F80024002AFBD04FF03D
:100E9000102315220F49C3F80422D1F800240D4B6A
:100EA000002AFAD00022C3F80425D3F80024002A2F
:100EB000FBD0BFF34F8F0849084BCA6802F4E062C9
:100EC0001343CB60BFF34F8F00BFFDE7704700BFF8
:100ED00000E100E000E0014000ED00E00400FA0560
:100EE00010B540220446002100F06AF80023236474
:100EF0006364204610BD026C10B5531C446C03F0B3
:100F00003F039C421CBF8154036410BD0023036453
:100F100043647047436C026C93421FBFC25C013351
:100F200003F03F03436414BF10464FF0FF30704797
:100F3000036C406C181A48BF40307047436C026C19
:100F4000934214BFC05C4FF0FF30704708B5074BA9
:100F5000044613B10021AFF30080054B1868836A83
:100F600003B19847204600F03BF800BF00000000A6
:100F70001C11000070B50E4B0E4CE41AA410002595
:100F80001E46A54204D056F8253098470135F8E7AB
:100F900000F028F8084C094BE41AA41000251E465E
:100FA000A54204D056F8253098470135F8E770BDC2
:100FB00064000020640000206C0000206400002019
:100FC00002440346934202D003F8011BFAE770473C
:100FD000034613F8012B002AFBD1181A0138704779
:100FE000FEE700BFF8B500BFF8BC08BC9E467047DE
:100FF000F8B500BFF8BC08BC9E4670470A50726F37
:10100000204D696E69206E52463532202D2045787C
:10101000616D706C652053797374656D204F4E203F
:10102000536C65657000476F696E6720746F20733D
:101030006C6565702E2E2E0057616B6520757020D3
:1010400066726F6D20736C656570696E6720766976
:101050006120495251210000000000000100000001
:101060000200000003000000040000000500000072
:101070000600000007000000080000000900000052
:101080000A0000000B0000000C0000000D00000032
:101090000E0000000F000000100000001100000012
:1010A00012000000130000001400000015000000F2
:1010B00016000000170000001800000019000000D2
:1010C0001A0000001B0000001C0000001D000000B2
:1010D0001E0000001F0000000D0A006E616E006916
:1010E0006E66006F766600000000000000000000E1
:1010F0006B0B0000ED0A0000D50B0000E10B0000B7
:10110000DB0B0000690B0000610B0000E90B000025
:10111000850B00005D0B0000430000000400002070
:0411200000000000CB
:0811240080F3FF7F01000000D1
:10112C000090D00300000000000000000000000050
:10113C0000000000000000000000000000000000A3
:10114C00000000001811000000000000000000006A
:10115C000000000000000000000000000000000083
:10116C000000000000000000000000000000000073
:10117C000000000000000000000000000000000063
:10118C00000000006D040000DD0D000045040000AF
:04119C00000000004F
:04000003000006B93A
:00000001FF
